:020000040800F2
:10000000D010002075020008CB200008F91D000860
:10001000C9200008E5040008B52C00080000000015
:10002000000000000000000000000000A7260008FB
:10003000E704000800000000A5260008A926000823
:100040008F0200088F0200088F0200088F0200084C
:100050008F0200088F0200088F0200088F0200083C
:100060008F0200088F0200088F0200088F0200082C
:100070008F0200088F0200088F0200088F0200081C
:100080008F0200088F0200088F02000800000000A5
:100090000000000000000000000000008F020008C7
:1000A0008F0200088F0200088F0200088F020008EC
:1000B0008F0200088F020008512700088F020008F5
:1000C0008F0200088F0200088F0200088F020008CC
:1000D0008F0200088F020008A92C00080000000011
:1000E000E90400088F0200088F02000800000000E9
:1000F0000000000000000000000000008F02000867
:10010000000000008F0200085D2700088F02000831
:1001100000000000000000000000000000000000DF
:100120008F0200088F0200088F0200088F0200086B
:100130008F02000800000000000000000000000026
:100140000000000000000000000000008F02000816
:100150008F0200088F0200088F0200088F0200083B
:100160008F0200088F02000800000000000000005D
:10017000000000000000000000000000000000007F
:10018000000000008F0200080000000000000000D6
:100190008F02000800F002F800F05CF80AA090E876
:1001A000000C82448344AAF10107DA4501D100F032
:1001B00051F8AFF2090EBAE80F0013F0010F18BFA3
:1001C000FB1A43F0010318476057000080570000F6
:1001D0000A444FF0000C10F8013B13F0070408BF6D
:1001E00010F8014B1D1108BF10F8015B641E05D00B
:1001F00010F8016B641E01F8016BF9D113F0080FC0
:100200001EBF10F8014BAD1C0C1B09D16D1E58BF51
:1002100001F801CBFAD505E014F8016B01F8016B88
:100220006D1EF9D59142D6D37047000000230024FB
:1002300000250026103A28BF78C1FBD8520728BFF6
:1002400030C148BF0B6070471FB503F04DFB1FBDA9
:1002500010B510BD00F0CFF81146FFF7F5FF02F022
:100260003BFD00F0EDF803B4FFF7F2FF03BC00F034
:10027000F1F800000948804709480047FEE7FEE71B
:10028000FEE7FEE7FEE7FEE7FEE7FEE7FEE7FEE746
:1002900004480549054A064B7047000041270008FD
:1002A00095010008D00A0020D0100020D00C0020BA
:1002B000D00C002053EA020C00F069802DE9F04BCD
:1002C0004FF00006002B1FBFB3FA83F503FA05F4C5
:1002D00024FA05F65E4012BF1643B2FA82F502FA1E
:1002E00005F4C5F120051EBF22FA05FC44EA0C0402
:1002F000203556EA044C4FEA144418BF641C4FF0F2
:1003000000084FF00009904271EB030C39D300292B
:1003100019BFB1FA81F701FA07F6B0FA80F700FACF
:1003200007F6C7F120071EBF20FA07FC46EA0C06B5
:100330002037B6FBF4FCA7EB0507103F07F01F0BB7
:10034000CBF120060CFA0BFB2CFA06F644BFB346A1
:100350000026202FA4BF5E464FF0000B5BEA060C80
:1003600008BF4FF0010B19EB0B09ABFB027C48EB0C
:100370000608C01B06FB02CC0BFB03CC71EB0C0187
:10038000C1E70B46024641464846BDE8F08B13B52F
:100390004FF000004FF00001AFF30080BDE81C40BB
:1003A00070474FF0000200B5134694469646203938
:1003B00022BFA0E80C50A0E80C50B1F12001BFF41E
:1003C000F7AF090728BFA0E80C5048BF0CC05DF884
:1003D00004EB890028BF40F8042B08BF704748BFD2
:1003E00020F8022B11F0804F18BF00F8012B704746
:1003F000704770477047754600F028F8AE46050014
:100400006946534620F00700854618B020B5FFF72F
:100410003FFFBDE820404FF000064FF000074FF0CF
:1004200000084FF0000B21F00701AC46ACE8C00912
:10043000ACE8C009ACE8C009ACE8C0098D4670471B
:100440000446AFF300802046FFF70DFF00487047D9
:10045000700A002001491820ABBEFEE7260002000A
:10046000704700002DE9F04100211B4801F0FEF922
:100470001A4C05204FF40046194D4FF47A7760610D
:100480000CE03146284600F078FA0121284600F0B9
:1004900074FAA06A97FBF0F000F092F8E069002887
:1004A000EFD0002731462846E76100F061FA18B91D
:1004B0003146284600F061FA0121284600F058FA3A
:1004C00018B90121284600F058FA0021024801F02D
:1004D00075F96761BDE8F081540900200000002033
:1004E00000000240FEE7704710B54FF4805000F066
:1004F00043F94FF4005000F03FF9BDE810404FF4CD
:10050000804000F039B972B6FEE72DE9F0410446AB
:10051000876D00F03FFA064694F835000025022862
:1005200006D08020606584F834500120BDE8F08159
:100530002068016821F0160101602068416921F0FE
:1005400080014161206C08B9A06C20B1206801686D
:1005500021F0080101602068016821F001010160BB
:100560000CE000F017FA801B052807D920206065F1
:10057000032084F8350084F83450D7E720680068F9
:10058000C007EED194F85C103F208840B86001208D
:1005900084F8350084F834500020C7E790F835100F
:1005A000022903D08021416501207047052180F890
:1005B00035100068016821F00101016000207047DA
:1005C00070B5044600F0E6F90546601C02D0044808
:1005D0000078044400F0DEF9401BA042FAD370BD5D
:1005E0004C0400202DE9F047604C01460126A0682C
:1005F000B1F5805F0FD07703DFF874815D4D4FF464
:100600008049B9425AD1002809D13946404600F004
:10061000AFF930B127E0002801D1A660E661BDE85E
:10062000F0874946404600F0A3F901281BD1606AD3
:100630000028206A07D003280EDA6169022905D054
:10064000032903D00FE0401C20620CE055F8201075
:10065000491C45F8201006E005D16069032802D145
:10066000A06A401CA0622868182800DB00202860CF
:1006700068683C2800DB00206860A8683C2800DB34
:100680000020A860216A0020042905DB6169012996
:1006900001D0022900D120626169032904D1226AB4
:1006A000052A01DB20625FE0226A032A5CD103296C
:1006B0005AD1A16A0A2957DDA06255E04945AED159
:1006C0000028ACD14946404600F052F908BB3946F3
:1006D000404600F04DF901281BD1606A0028206ACD
:1006E00007D003280EDA6169022905D0032903D057
:1006F0000FE0401E20620CE055F82010491E45F81E
:10070000201006E005D16069032802D1A06A401ECE
:10071000A0622868002800DA17202860686800288E
:1007200000DA3B206860A868002800DA3B20A86057
:10073000206A002806DA6069012801D0022801D168
:10074000032020626069032804D1216A002901DAAC
:100750000420A7E7216A032906D1032804D1A06A4F
:10076000002801DA0A20A7E7A66058E70000002069
:1007700000040240E8080020044910B50A6802425B
:1007800002D00860FFF72EFF10BD0000143C0140AE
:100790002DE9F84FDFF8B8A10022012403254FF01E
:1007A0000F090AF1040BAAF1040E00BF0B6804FA4A
:1007B00002F63340B34273D10F7907F00307012FDC
:1007C00001D0022F16D187684FEA420805FA08FCCB
:1007D00027EA0C07D1F80CC00CFA08FC4CEA070C0D
:1007E000C0F808C04768B7430E79C6F300169640B4
:1007F0003E4346600E79F643B6070DD0C7685600F3
:1008000005FA06FC27EA0C07D1F808C00CFA06FC2A
:100810004CEA070CC0F80CC00E7906F00306022E55
:1008200010D1D60800EB8608D8F8206057074FEAA9
:10083000D76C09FA0CF7BE430F6907FA0CF7374378
:10084000C8F8207006684FEA420C05FA0CF7BE4360
:100850000F7907F0030707FA0CF7374307604E6874
:1008600016F4403F6DD03B4E376847F48047376001
:10087000366822F0030706F480460096364E07EBF2
:10088000060CDCF8086897073F0F09FA07F826EA14
:100890000806DFF8C880404503D14FF000081EE08D
:1008A0004FE0DFF8BC80404502D14FF0010816E070
:1008B000DFF8B080404502D14FF002080FE0DFF8CA
:1008C000A880404502D14FF0030808E0DFF89C8083
:1008D000404502D14FF0040801E04FF0070808FA44
:1008E00007F848EA0608CCF80888DAF800605746A6
:1008F000D1F804C09E435FEACC2C00D51E433E6075
:10090000DBF800605F46D1F804C09E435FEA8C2CA0
:1009100000D51E433E60DEF800607746D1F804C083
:100920009E435FEA8C3C00D51E433E60084F083F63
:100930003E68D1F804C09E435FEACC3C00D51E431C
:100940003E60521C102AFFF431AFBDE8F88F000062
:10095000083C0140443802400030014000000240A1
:100960000004024000080240000C02400010024057
:100970000069084000D001207047426921EA020363
:100980000A4043EA0241816170470AB181617047C0
:100990000904FBE701488068704700004C04002010
:1009A00070B5040025D094F83D00002520B984F8E6
:1009B0003C50204600F0B8F8242084F83D00206820
:1009C000016821F0010101602068016841F40041E3
:1009D00001602068016821F40041016000F00CFA18
:1009E0004D4A6168914201D84C4900E04C49884227
:1009F00001D2012070BD4B492368B0FBF1F15E6864
:100A000026F03F060E435E606368934206D94FF4BA
:100A1000967359434FF47A73B1FBF3F12368491C81
:100A20001E6A26F03F06314319626168914210D870
:100A30004900401EB0FBF1F2521CC2F30B02042A23
:100A400001D2042022E0B0FBF1F0401CC0F30B0007
:100A50001CE0A268F2B301EBC10303EB0116431ED5
:100A6000B3FBF6F35B1C43F480431B0549D092B300
:100A700001EBC10202EB0111401EB0FBF1F0401C82
:100A8000C0F30B0040F4804040F400402168CA6984
:100A90004CF6FF739A431043C861D4E90710014331
:100AA0002068026822F0C00211430160D4E903010A
:100AB00001432068826848F2FF339A431143816002
:100AC000D4E9050108432168CA6822F0FF021043F7
:100AD000C86001E00EE016E02068016841F0010105
:100AE00001602564202084F83D00256384F83E5091
:100AF000002070BD01EB4106431EB3FBF6F35B1C07
:100B0000B3E70120C2E701EB4101401EB0FBF1F069
:100B1000401CC0F30B00B7E7A086010080841E00D4
:100B200000093D0040420F0010B586B00446142174
:100B30006846FFF736FC13492068884220D11248E6
:100B40000021026842F002020260006800F0020028
:100B50000590C02000901220CDE9010103200390F0
:100B60000420049069460948FFF712FE0648103039
:100B7000016841F400110160006800F40010059064
:100B800006B010BD0054004030380240000402405E
:100B90000248816802781144816070474C0400204B
:100BA0000B4810B5016841F400710160016841F41F
:100BB00080610160016841F480710160032000F0F0
:100BC0006FF80F2000F006F800F024F8002010BDA8
:100BD000003C024070B50D4D04464FF47A71287800
:100BE000B1FBF0F00A490968B1FBF0F000F00CFB32
:100BF00048B9102C07D200222146501E00F030F8D0
:100C000000206C6070BD012070BD00004C0400200D
:100C1000580400200A4808B5016841F48041016089
:100C2000006800F4804000900548001F016841F012
:100C300080510160006800F08050009008BD000005
:100C400044380240002809DB00F01F0201219140D6
:100C50004009800000F1E020C0F80011704700005A
:100C6000F0B40E4B1B680C46C3F30223C3F1070517
:100C7000042D00D90425191D072901D2002300E005
:100C8000DB1E012606FA05F1491E214099409E40CF
:100C9000761E16403143F0BC02F00DB80CED00E0BA
:100CA000064900F0070208684FF6FF03184040EAC3
:100CB0000220034A10430860704700000CED00E07A
:100CC0000000FA052DE9F0470E46050065D0DFF873
:100CD0001481D8F80000F7B200F00700B04207D244
:100CE00088F80070D8F8000000F00700B04254D136
:100CF00028683D4C810712D5400703D5206840F491
:100D0000E05020602878000703D5206840F4604058
:100D100020602068A96820F0F0000843206028784F
:100D2000C0072DD0304968680839012812D0022840
:100D300013D0032811D00968890700292DDA21680A
:100D400021F0030101432160FFF724FE814641F2B7
:100D5000883A0EE009688903EFE709688901ECE742
:100D6000FFF718FEA0EB0901514502D90320BDE8A9
:100D7000F0872068696800F00C00B0EB810FEFD1BC
:100D8000D8F80010404601F00701B14207D90770BA
:100D9000006800F00700B04201D00120E7E72878A2
:100DA000400705D52068E96820F4E050084320603A
:100DB0002878000706D52068296920F4604040EAB9
:100DC000C100206000F038F82168084AC1F303111F
:100DD000515CC8400649086006480068FFF7FAFE03
:100DE0000020C4E7003C0240083802408258000856
:100DF0005804002050040020044805490068096890
:100E0000044AC1F38221515CC84070475804002055
:100E100008380240925800080448054900680968EB
:100E2000044AC1F34231515CC84070475804002065
:100E30000838024092580008154810B5006810F0B4
:100E40000C02144813D01449042A0FD0082A0ED1DA
:100E50000F4C241F2268236802F03F025B0207D573
:100E60002068C0F38810A0FB010106E0084610BD11
:100E70002168C1F38811A1FB00010023FFF71AFAD2
:100E80002168C1F30141491C4900B0FBF1F010BDDC
:100E9000083802400024F40040787D012DE9F84F25
:100EA00004006ED02078DFF84C93C007A9F1040548
:100EB0004AD009F104000168C1F38101012908D079
:100EC0000068C0F3810002280AD1D9F8000040026E
:100ED00006D52868800337D560680028E1D033E064
:100EE0006068B0F5803F10D0B0F5A02F286810D012
:100EF00020F480302860286820F480202860606812
:100F0000A8B1FFF747FD06460DE0286840F48030A1
:100F1000F4E740F480202860F7E700BFFFF73AFDD0
:100F2000801B642873D828688003F7D50CE0FFF78E
:100F300031FD064605E000BFFFF72CFD801B64284D
:100F4000F0D828688003F7D42078DFF8AC828007D7
:100F50004FF0000A3ED5A748001D016811F00C0FA4
:100F600008D00068C0F3810002280BD1D9F8000036
:100F7000400207D42868800716D5E068012800D110
:100F800012E033E1E068B8B10120C8F80000FFF7D3
:100F900001FD064605E000BFFFF7FCFC801B0228B0
:100FA000C0D828688007F7D52868216920F0F800A4
:100FB00040EAC10028600DE0C8F800A0FFF7EAFC95
:100FC000064604E0FFF7E6FC801B02281FD82868CD
:100FD0008007F7D42078000722D5864F87486169BB
:100FE000703771B101210160FFF7D4FC064604E0BF
:100FF000FFF7D0FC801B022809D838688007F7D596
:101000000EE0C0F800A0FFF7C5FC064605E082E050
:10101000FFF7C0FC801B02287DD838688007F7D412
:101020002078400768D5DFF8CCB100270BF13C0BE6
:10103000DBF80000C0000BD4DBF8001041F0805159
:10104000CBF80010DBF80000012700F08050009082
:101050006B4E3068C00510D4306840F4807030604A
:10106000FFF798FC009005E0FFF794FC0099401A08
:10107000022850D83068C005F6D55E4EA0686C36A0
:1010800001280FD00528306810D020F00100306012
:10109000306820F004003060A068B8B1FFF77AFC37
:1010A00000900FE0306840F00100F4E740F00400E9
:1010B0003060F7E7FFF76EFC0099411A41F2883083
:1010C000814266D830688007F4D50EE0FFF762FCF5
:1010D000009007E0FFF75EFC0099411A41F288306A
:1010E000814256D830688007F4D42FB1DBF8001065
:1010F00021F08051CBF80010A069C8B33D49091D0B
:101100000968C1F3810102294AD00228504607D05C
:10111000C8F8600000E03CE0FFF73CFC04463BE020
:101120004746C8F86000FFF735FC064605E000BFFB
:10113000FFF730FC801B02282BD828688001F7D4E9
:10114000D4E907010843A16A2E4A490802EB01418C
:10115000626A41EA8211084394F82C1040EA016166
:10116000C9F8001001203866FFF714FC044606E0B9
:101170003EE000BFFFF70EFC001B022809D82868DC
:101180008001F7D534E000BFFFF704FC001B022804
:1011900002D90320BDE8F88F28688001F4D427E045
:1011A0000128F7D0D9F80000E26900F480019142EB
:1011B0001CD1226A00F03F01914217D147F6C0715D
:1011C000626A0140B1EB821F10D1A26A4FF0FF3377
:1011D00000F4403103EB5202B1EB024F06D194F818
:1011E0002C1000F07060B0EB016F01D00120D1E74E
:1011F0000020CFE70438024000004742800E4742FB
:10120000007000400000FFFF10B5401EB0F1807F6D
:1012100001D3012010BD4FF0E02460610F21601761
:1012200001F049FD0020A06107202061002010BDD1
:101230007047704770B590F83C20012A2CD00124EB
:1012400080F83C40022280F83D2003685A689D687F
:1012500022F070060A6832435A60104B02689A42C4
:101260000ED0B2F1804F0BD00D4B9A4208D00D4BEF
:101270009A4205D00C4B9A4202D00C4B9A4204D1B0
:10128000496825F080031943916080F83D400021B2
:1012900080F83C10084670BD022070BD000001407F
:1012A0000004004000080040000C004000400140E5
:1012B00010B5040003D094F83D0010B107E0012000
:1012C00010BD002084F83C00204600F01FF80220EA
:1012D00084F83D00211D206801F046FA012084F8C1
:1012E000460084F83E0084F83F0084F8400084F80B
:1012F000410084F8420084F8430084F8440084F8F4
:10130000450084F83D00002010BD000008B5154AD6
:101310000168154891420ED1016841F00401016055
:101320000068002200F00400009011461E20FFF724
:1013300097FC1E2010E00D4A914211D1016841F046
:10134000080101600068002200F0080000901146CA
:101350003220FFF785FC3220BDE80840FFF772BC61
:1013600008BD00000008004040380240000C00406A
:1013700090F83D10012901D001207047022180F82A
:101380003D100168CA6842F00102CA6000680E4957
:1013900088420ED0B0F1804F0BD00C49884208D063
:1013A0000B49884205D00B49884202D00A4988423D
:1013B00004D1816801F00701062903D0016841F0DA
:1013C000010101600020704700000140000400405E
:1013D00000080040000C00400040014070B5044689
:1013E00090F83C000025012817D0012684F83C60C5
:1013F000022084F83D002068826822F0770222F4FF
:101400007F4282600868502838D00DDC20284FD0F9
:1014100005DC90B3102811D14AE0022070BD3028BD
:1014200046D040280AD13BE060282FD070280DD04C
:10143000B0F5805F03D0B0F5005F12D0012584F8CD
:101440003D60002084F83C00284670BDCB68D1E99F
:101450000121206801F0E1F92068816841F07701FD
:1014600009E0CB68D1E90121206801F0D6F92068B4
:10147000816841F480418160E1E719E0CA68496808
:10148000206801F07FFA5021206806E0CA684968A8
:10149000206801F088FA6021206801F0C8F9CEE7E1
:1014A000CA684968206801F06DFA40212068F4E7B5
:1014B000226801461046F0E7704770B504460068A0
:1014C00001694FF00005C943890715D4C168C943B4
:1014D000890711D4E91E0161012020772068806905
:1014E0008007204602D0FFF7E7FF04E000F0BEF8D7
:1014F000204600F061F9257720680169C943490752
:1015000017D4C168C943490713D46FF004010161BE
:10151000022020772068806910F4407F204602D0A6
:10152000FFF7CAFF04E000F0A1F8204600F044F9FC
:10153000257720680169C943090716D4C168C943E2
:10154000090712D46FF00801016104202077206898
:10155000C0698007204602D0FFF7AEFF04E000F02C
:1015600085F8204600F028F9257720680169C943ED
:10157000C90617D4C168C943C90613D46FF0100156
:101580000161082020772068C06910F4407F204660
:1015900002D0FFF791FF04E000F068F8204600F069
:1015A0000BF9257720680169C943C90708D1C168CB
:1015B000C943C90704D1891E0161204600F08EF994
:1015C00020680169C943090609D4C168C9430906ED
:1015D00005D46FF0800101612046FFF729FE2068E5
:1015E0000169C943490609D4C168C943490605D4FC
:1015F0006FF040010161204600F0B6F920680169F2
:10160000C94389060BD4C168C943890607D46FF062
:10161000200101612046BDE87040FFF70ABE70BDA1
:1016200010B586B0044614216846FEF7BAFE20685D
:10163000B0F1804F14D10B480021026842F0010242
:1016400002600068022200F0010005900120009075
:10165000CDE90121CDE9031069460348FFF798F869
:1016600006B010BD3038024000000240704770B52F
:10167000044690F83C0000260D4601280FD00120BA
:1016800084F83C006AB1042A1DD0082A2FD00C2A05
:101690003FD00126002084F83C00304670BD022077
:1016A00070BD206801F0CCF82068816941F0080124
:1016B00081612068816921F004018161206881696C
:1016C0002A69114311E0206801F0E2F8206881697D
:1016D00041F4006181612068816921F48061816148
:1016E000206881692A6941EA02218161D2E7206884
:1016F00001F0FAF82068C16941F00801C161206871
:10170000C16921F00401C1612068C1692A691143DE
:1017100011E0206801F014F92068C16941F400610A
:10172000C1612068C16921F48061C1612068C1691B
:101730002A6941EA0221C161ACE710B5040003D077
:1017400094F83D0010B107E0012010BD002084F89E
:101750003C00204600F01EF8022084F83D00211DC8
:10176000206801F001F8012084F8460084F83E006A
:1017700084F83F0084F8400084F8410084F8420077
:1017800084F8430084F8440084F8450084F83D0060
:10179000002010BD08B50068B0F1804F08D10548A1
:1017A000016841F001010160006800F00100009053
:1017B00008BD0000403802407047000010B50446E4
:1017C000022249B104290ED0082913D094F841000F
:1017D000012816D0012010BD94F83E000128F9D14F
:1017E00084F83E200FE094F83F000128F2D184F8FD
:1017F0003F2008E094F840000128EBD184F8402015
:1018000001E084F841200122206800F0F9FF12492C
:101810002068884203D1426C42F40042426420684E
:1018200088420ED0B0F1804F0BD00C49884208D0CE
:101830000B49884205D00B49884202D00A498842A8
:1018400004D1816801F00701062903D0016841F045
:1018500001010160002010BD0000014000040040B3
:1018600000080040000C00400040014030B5044634
:101870000D460068002200F0C3FF174B41F2111122
:1018800020688A10984209D1036A0B4206D1036A84
:10189000134203D1436C23F4004343642068036A7A
:1018A0000B4206D1016A114203D1016821F0010106
:1018B000016001203DB1042D08D0082D09D084F825
:1018C0004100002030BD84F83E00FAE784F83F0074
:1018D000F7E784F84000F4E7000001401E49026881
:1018E0000B681E499A4213D11D4ACB681268536394
:1018F0000A46B3F57A7F126901DBB2B100220A61B0
:10190000002B01DC9AB100220A6192B11433CB6042
:10191000144A0068126890421CD14A6B0020521C85
:101920004A633C2A07D00A6B09E00122E7E701225B
:10193000EAE7143BEBE748630A6B521C0A633C2A54
:1019400001D0CA6A03E00863CA6A521CCA62182A34
:1019500000D1C86270470000E409002000000020A8
:10196000540900209C090020704770477047000010
:10197000F8B5016804460868CA684B6910F00F0F93
:101980004FF000055AD003F0010602F49077374378
:1019900065D0C10705D0D10503D5216C41F0010107
:1019A0002164410705D5D90703D0216C41F002011C
:1019B0002164810705D5D90703D0216C41F00401CA
:1019C0002164010707D502F02001314303D0216CC7
:1019D00041F008012164216C00293BD0800604D528
:1019E000900602D5204601F01FF820684069216C5E
:1019F000C0F3801001F00801014320462BD000F015
:101A0000ECFF20684069400621D52068143050E87A
:101A1000001F21F0400140E80012002AF5D1A06B20
:101A2000A8B16C490165A06BFEF7B8FD002811D084
:101A3000A06B016D01B0BDE8F040084783060ED5EC
:101A400093060CD52046BDE8F84000F0EDBF2046D7
:101A5000FFF78CFFF8BDFFF789FF2564F8BD266B03
:101A60002023012E79D1C60677D5D60675D508680C
:101A7000486800904869400640D5A16B08684068F6
:101A80000004000CEAD0A28D8242E7D9E085C86943
:101A9000B0F5807F2DD020680C3050E8001F21F475
:101AA000807140E80012002AF5D12068143050E817
:101AB000001F21F0010140E80012002AF5D1206842
:101AC000143050E8001F21F0400140E80012002AC5
:101AD000F5D184F83E30256320680C3050E8001FB3
:101AE00021F0100140E80012002AF5D1A06BFEF7AA
:101AF0000CFDA08DE18D401A81B229E0A08DE18D11
:101B0000401A81B2E08D0028A8D00029A6D0206814
:101B10000C3050E8002F22F4907240E80026002E8E
:101B2000F5D12068143050E8002F22F0010240E87F
:101B30000026002EF5D184F83E30256320680C3055
:101B400050E8002F22F0100240E80023002BF5D1CE
:101B50002046FFF70AFFF8BDFFE705062BD515065F
:101B600029D594F83D002128F5D1A068B0F5805F13
:101B700001D12069B0B1206A411C2162216800783E
:101B80004860E08C401E0004000CE084E3D1206833
:101B9000C16821F08001C1602068C16841F0400146
:101BA000C160D8E7206A0088C0F308004860206A56
:101BB000801C2062E5E74006CDD55006CBD5CA682B
:101BC000204622F04002CA6084F83D3000F013F94C
:101BD000C1E70000CB29000870B5040004D094F8D8
:101BE0003D00002510B106E0012070BD84F83C5096
:101BF000204600F023F8242084F83D002068C168C6
:101C000021F40051C160204600F06EFF2068016998
:101C100021F4904101612068416921F02A0141616C
:101C20002068C16841F40051C1602564202084F817
:101C30003D0084F83E00002070BD000010B586B065
:101C4000044614216846FEF7ACFB17492068884219
:101C500028D116480021026842F400320260006870
:101C600000F40030059011481038026842F001027B
:101C70000260006800F0010005900C200090022036
:101C8000CDE901010320039007200490694608482C
:101C9000FEF77EFD00220F212620FEF7E1FF262021
:101CA000FEF7D0FF06B010BD0044004040380240AF
:101CB0000000024090F83E30202B0ED159B152B1B5
:101CC00090F83C30012B08D0012380F83C300023F1
:101CD000036300F08FBF01207047022070470000AF
:101CE00010B500681349884223D1134C204621784F
:101CF0004068412904D0422904D0432905D008E096
:101D0000401E00E0401C60600AE000210B48FFF725
:101D1000ADFD2078442803D100210848FFF74EFD8F
:101D200000202070BDE81040012203490448FFF75D
:101D3000C1BF10BD00440040000000205409002035
:101D40002C0A00202DE9F843044690F83D001F4678
:101D500016460D4620284CD1C5B1BEB194F83C00C2
:101D6000012846D0012084F83C004FF00008C4F858
:101D70004080212084F83D00FEF70CFEA6848146B9
:101D8000E684A068B0F5805F03D004E00120BDE8E0
:101D9000F883206928B12E465FF0000584F83C8066
:101DA0000EE00026FAE78021204600F040FFA0B9AF
:101DB000AEB116F8010B21684860E08C401EE0844B
:101DC000E08C4B464FF0000200970028EBD14FF01B
:101DD0004001204600F02BFF30B10320D7E735F853
:101DE000020BC0F30800E6E7202084F83D00002045
:101DF000CDE70220CBE77047FEE700002DE9F04376
:101E000087B014216846FEF7CCFA3A4800240168EE
:101E100041F004010160016801F0040105910168CD
:101E200041F080010160016801F0800105910168C5
:101E300041F001010160016801F0010105910168B3
:101E400041F0020101600068DFF8AC8000F00200A0
:101E500048F2E0060590002231464046FEF795FD27
:101E6000DFF8989040F20447002239464846FEF7D2
:101E70008CFD4FF4005001258DE831006946204863
:101E8000FEF786FC1020CDE9000469464046029426
:101E9000FEF77EFC0096CDE9015469464046039466
:101EA000FEF776FC0097CDE9015469464846039455
:101EB000FEF76EFC280300904FF48810CDE9010571
:101EC00069464846FEF764FC4FF4C04000904FF46A
:101ED0000410CDE9010569464846FEF759FC002289
:101EE0000E212820FEF7BCFE2820FEF7ABFE07B02F
:101EF000BDE8F08330380240000002400004024098
:101F0000000802400D4810B50B4901600C494160C2
:101F100000214FF480428160C0E903124161816178
:101F2000C1610162FEF73CFD002803D0BDE810400E
:101F3000FEF7E9BA10BD000000540040000900207F
:101F4000A086010010B58AB0002407941C216846C1
:101F50000894FEF726FA17484FF08041016040F2DE
:101F60004731C0E9011440F2E731C0E90314802190
:101F70008161FFF7E2FB08B1FEF7C5FA079407A9F4
:101F80000C480894FFF756F908B1FEF7BCFA602038
:101F900000903220CDE901040022694605480494EE
:101FA000FFF765FB08B1FEF7AEFA0248FFF738FB12
:101FB0000AB010BD5409002010B586B0002418489E
:101FC00000940194029403940494144905940160CC
:101FD00042F2CF01C0E9011442F20F71C0E90314CB
:101FE00080218161FFF764F908B1FEF78CFA4FF4A4
:101FF0008050009069460A48FFF7F0F908B1FEF7F3
:1020000082FA049404A906480594FFF713F90028FE
:1020100001D0FEF778FA06B010BD000000080040BD
:102020009C09002010B586B0002418480094019443
:1020300002940394049414490594016040F24731DA
:10204000C0E9011440F2E731C0E903148021816145
:10205000FFF72EF908B1FEF756FA4FF480500090C2
:1020600069460A48FFF7BAF908B1FEF74CFA04943A
:1020700004A906480594FFF7DDF8002801D0FEF713
:1020800042FA06B010BD0000000C0040E409002038
:102090000C4810B50A4901604FF416514160002107
:1020A00081600C22C160C0E904128161C161FFF747
:1020B00093FD002803D0BDE81040FEF724BA10BD00
:1020C000004400402C0A0020FEE7FEE730B4002167
:1020D000084B0A465FF0000003EBC004401CC0B28E
:1020E00062548028F8D3491CC9B20829F2D330BC05
:1020F00000F0F6B85C04002030B5CC0801F007030E
:1021000001259D40EBB2064D05EBC005C808285CD3
:102110000AB1184302E063EA0000C043285530BD0D
:102120005C0400202DE9F041654886B0016841F06B
:1021300001010160016801F001010591016841F0B0
:1021400004010160016801F004010591016841F09A
:102150000201016000685B4E00F002000590012260
:10216000B0213046FEF711FC574F0122402138467E
:10217000FEF70BFCDFF85481012280214046FEF778
:1021800004FC0124B020CDE9000402256946304654
:10219000CDE90245FEF7FCFA4020CDE9000469468E
:1021A0003846CDE90245FEF7F3FA8020CDE9000478
:1021B00069464046CDE90245FEF7EAFA00222021B1
:1021C0003046FEF7E2FBC820FEF7FAF90122202193
:1021D0003046FEF7DAFB0021AE2000F023FA0021A2
:1021E000084600F01FFA0021102000F01BFA002121
:1021F000402000F017FA0021812000F013FA00219E
:10220000CF2000F00FFA0021A12000F00BFA0021EE
:10221000C82000F007FA0021A62000F003FA0021F0
:10222000A82000F0FFF900213F2000F0FBF9002179
:10223000D32000F0F7F90021084600F0F3F900215F
:10224000D52000F0EFF90021802000F0EBF900210B
:10225000D92000F0E7F90021F12000F0E3F9002196
:10226000DA2000F0DFF90021122000F0DBF9002174
:10227000DB2000F0D7F90021402000F0D3F9002145
:10228000202000F0CFF90021022000F0CBF900213E
:102290008D2000F0C7F90021142000F0C3F90021BF
:1022A000A42000F0BFF90021A62000F0BBF9FFF741
:1022B0000DFF0021AF2000F0B5F906B0BDE8F081B8
:1022C0003038024000000240000402400008024092
:1022D0000246012000E05043491EC9B2FBD27047BC
:1022E00070B5114E002400BF04F1B000C0B200214F
:1022F00000F098F90021084600F094F90021102020
:1023000000F090F95FF0000506EBC5000121005DCB
:1023100000F088F96D1CEDB2802DF5D3641CE4B299
:10232000082CE1D370BD00005C0400202DE9FC4FB7
:102330001C460E4682468B460190082B0ED0600745
:1023400000D0012000EBD400610810FB01F0C0B206
:102350008146203AD0B2009000204AE00620F7E7FC
:10236000082C12D00C2C17D0102C1AD0182C43D1BA
:102370000098234900EBC00001EB8001002711F811
:102380000850E80712D00B9A13E000981D4900EBA3
:10239000400001EB4001F1E700981B4900EB4000D1
:1023A000EAE71A49009801EB0011E7E70B9828B318
:1023B000002231465046FFF79FFE761C7F1C6D08B9
:1023C000FFB2F6B2082FDCD30AF1010000F0FF0AD9
:1023D000082C0AD00199AAEB0100B0EB540F04D1EC
:1023E0000BF108008A4600F0FF0B08F101005E4681
:1023F000C0B280464845B3D3BDE8FC8F0122D8E780
:102400007E450008F23800081A3B00088E3F00089D
:102410002DE9FF4F81B08146009098460E468B46CD
:10242000580701D0012100E0002101EBD80111FB88
:1024300008FA002448E000BFB8F1100F12D0B8F13C
:10244000180F14D0B8F1200F19D0B8F1400F3DD1BA
:102450002149039801EB40200027055DE80714D0CF
:102460000E9A15E01D49039801EB4010F4E703981C
:10247000194900EBC000C83901EBC000ECE7164970
:102480000398803901EBC010E6E70E9808B30022EC
:1024900031464846FFF730FE761C7F1C6D08FFB2C0
:1024A000F6B2082FDAD309F10100009900F0FF0914
:1024B000A9EB0101414505D10BF10800DDF80090C1
:1024C00000F0FF0B5E46641C5445B5D305B0BDE873
:1024D000F08F0122DCE7000082560008DA52000883
:1024E0002DE9F84F0025DDE90A691F4692468B4623
:1024F0008046082E00D1022500241CE0381B401E17
:10250000C1B20A20FFF7E4FEBAFBF0F00A21B0FBEB
:10251000F1F201FB1200CDF8009080B13030C2B270
:1025200005EB560101FB0480C0B233465946FFF764
:10253000FDFE641CE4B2BC42E0D3BDE8F88F05EBBD
:10254000560101FB0480C0B233463022EEE72DE98C
:10255000FF4F82B08046019092460C464FF0000932
:102560008B46580700D0012000EBD30005900020D7
:1025700030E0002629E00F98002510F8097009F1D5
:102580000109F80701D0109A02E0109848B3002220
:1025900021464046FFF7B0FD641C6D1C7F08EDB27C
:1025A000E4B2082DEDD308F10100019900F0FF0815
:1025B000A8EB0101514505D10BF10800DDF80480BD
:1025C00000F0FF0B761C5C46F6B25645D3D300985C
:1025D000401CC0B2009005998842CAD306B0BDE83D
:1025E000F08F0122D4E72DE9F8411E4615468846B2
:1025F0000446079F0BE03346414620460097FFF70D
:1026000095FE082E0AD004EB5600C4B26D1C2A7841
:10261000A2F120005E28EED9BDE8F881A41DE4B245
:10262000F4E700002DE9F0411C4C054609B10122F8
:1026300000E0002240212046FEF7A7F90022802179
:10264000A0462046FEF7A1F9154F00244FF48066FE
:10265000002231463846FEF798F9280601D50122B6
:1026600000E0002204213846FEF78FF901223146AE
:102670003846FEF78AF96806641C050EE4B2082C99
:10268000E6D30122802144464046FEF77EF92046EB
:10269000BDE8F04101224021FEF777B90000024079
:1026A0000004024070477047FEF772BA30B593B02D
:1026B00030216846FDF775FE14210CA8FDF771FE68
:1026C0001D480025016841F080510160006800F05C
:1026D000805011901948016821F4404141F40041B3
:1026E00001600068022400F4404011900120009035
:1026F000000401908001CDE9064019200890A8202F
:10270000CDE9090404200B906846FEF7C7FB08B129
:1027100072B6FEE70CA90F2081E831004FF480501B
:10272000CDE90F0502210CA8FEF7CCFA002801D054
:1027300072B6FEE713B030BD403802400070004072
:102740000248016841F470010160704788ED00E0C3
:102750000148FEF7B2BE00009C0900200148FEF7C8
:10276000ACBE0000E4090020F0B502681D4B1E4C11
:102770009F031E4D1E4E984207D0B84205D0A0427E
:1027800003D0A84201D0B04204D122F0700C4A68B4
:1027900042EA0C02984210D0B8420ED0A0420CD0AF
:1027A000A8420AD0B04208D0124CA04205D0124C28
:1027B000A04202D0114CA04203D122F44074CA6856
:1027C00022434C6922F08002224302608A68C2627E
:1027D0000A688262984201D109690163012141615D
:1027E000F0BD00000000014000040040000800406F
:1027F000000C0040004001400044014000480140FE
:1028000010B501F01F030121046A99408C43046252
:10281000016A9A401143016210BD10B5846842EA12
:10282000032224F47F440A432243826010BD82685D
:1028300022F070020A4342F00701816070470000F5
:1028400030B5026A22F001020262026A43688469BA
:1028500024F073050C682C4322F002058A682A4391
:102860000A4DA8420BD122F00805CA6823F4407330
:102870002A434D6922F004021D438B692B434360B8
:10288000846149684163026230BD0000000001407C
:1028900030B5026A22F010020262026A436884695B
:1028A0000D6824F4E64444EA05248D6822F02002F1
:1028B00042EA05120B4DA8420ED1CD6822F08002EB
:1028C00042EA05124D6923F4406343EA85038D69AA
:1028D00022F0400243EA85034360846149688163D2
:1028E000026230BD0000014030B5026A22F48072FD
:1028F0000262036A4268C46923F4007324F073051A
:102900000C682C438D6843EA05230C4DA8420ED178
:10291000CD6823F4006343EA05234D6922F4405255
:1029200042EA05128D6923F4806342EA051242608F
:10293000C4614968C163036230BD0000000001400A
:1029400030B5026A22F480520262046A4268C369A6
:102950000D6823F4E64343EA05238D6824F400540C
:1029600044EA0534064DA84204D14D6922F4804260
:1029700042EA85124260C36149680164046230BD65
:102980000000014010B5036A046A24F001040462E7
:10299000846924F0F00444EA021423F00A020A4392
:1029A0008461026210BD10B5036A23F01003036254
:1029B0008369046A23F4704343EA023224F0A003DB
:1029C00043EA01118261016210BD10B5806B0021E4
:1029D000C185C184FEF7CAFF10BD01680C3151E802
:1029E000002F22F4907241E80023002BF5D10168FA
:1029F000143151E8002F22F0010241E80023002B9E
:102A0000F5D1016B012909D101680C3151E8002F82
:102A100022F0100241E80023002BF5D1202180F89C
:102A20003E1000210163704708B590F83E1022293E
:102A300001D0022008BD82684FF480539A4201D130
:102A4000016921B1816A9A421BD04AB10AE0026849
:102A5000816A5268C2F308020A80816A891C08E010
:102A6000026972B10268526802F07F020A70816ADC
:102A7000491C8162C18D491E0904090CC18503D01E
:102A800019E002685268F1E70168CA6822F0200282
:102A9000CA600168CA6822F48072CA6001684A6923
:102AA00022F001024A61202180F83E10016B0129C9
:102AB00003D0FFF715F9002008BD0021016301686C
:102AC0000C3151E8002F22F0100241E80023002BC6
:102AD000F5D101680A68D20602D50A6849680091F2
:102AE000818DFEF742FFE6E770B504460068016994
:102AF000E26821F44051114301612169A068E26953
:102B000008436169114308432168CA6849F20C63AC
:102B10009A430243CA6020684169A26921F4407166
:102B20001143416131492068884202D030498842CE
:102B300002D1FEF771F901E0FEF75EF9E2690023C8
:102B4000192164253226B2F5004F626828D0A0FB17
:102B50000101930F9200FDF7ADFB0146B0FBF5F0CC
:102B60006FF01802504301EB800006EB0010B0FB41
:102B7000F5F000F0F002B1FBF5F002EB0012B1FB52
:102B8000F5F06FF01803584301EB800006EB0010DE
:102B9000B0FBF5F000F00F0021681044886070BDB4
:102BA000A0FB010192185B41FDF784FB0146B0FBDD
:102BB000F5F00201B1FBF5F06FF01803584301EB9B
:102BC000800006EBC000B0FBF5F000F0F80002EB6F
:102BD0004002B1FBF5F0584301EB800006EBC0006A
:102BE000B0FBF5F000F00700D6E700000010014050
:102BF0000014014081628285C28500210164222285
:102C000080F83E2080F83C10016921B10168CA6853
:102C100042F48072CA6001684A6942F001024A6166
:102C20000068C16841F02001C160002070472DE9B3
:102C3000F041984617460E460446069D27E0681C5C
:102C400025D02DB1FDF7A6FEA0EB0800A8421ED9A5
:102C500020680C3050E8001F21F4D07140E80012C9
:102C6000002AF5D12068143050E8001F21F001013E
:102C700040E80012002AF5D1202084F83D0084F8B5
:102C80003E00002084F83C000320BDE8F08120686D
:102C9000006836EA000004D00020B842CFD00020FF
:102CA000F3E70120F9E700000148FEF761BE0000EC
:102CB0002C0A0020FEE70907090E002804DB00F1BA
:102CC000E02080F80014704700F00F0000F1E020D1
:102CD00080F8141D704700001CB5FDF761FFFFF779
:102CE000E5FCFFF78BF8FFF7D3F9FFF72BF9FFF7B8
:102CF00099F9FFF707F9FFF75FF9FFF713FAFFF705
:102D0000E5F90124FE48CDE900040021402380229A
:102D10000846FFF71CFCFFF7E3FA41F28830FDF7A5
:102D20004FFCFFF7D3F9FFF7DBFAF648CDE90004D3
:102D300000210B2307220846FFF709FCA31E8C2263
:102D4000F149F248FEF7FEFFED4901223C39EF4818
:102D5000FEF7B0FF0021EE48FEF730FDED48FEF72C
:102D600007FBED48FEF704FBDFF8B083E44D1827BE
:102D700000264FF0100A3C3D08F10C09686905284F
:102D80007ED2DFE800F00383FDFCFB00009400220C
:102D9000287E10231146FFF73BFB0094287E10236A
:102DA0001030C0B201220021FFF732FB0094287ED0
:102DB00010232030C0B202220021FFF729FB00942B
:102DC000287E10233030C0B203220021FFF720FB01
:102DD000CDE90074022310210E20EA6AFFF780FB80
:102DE0001823CFA2102128200094FFF7FCFBCDE987
:102DF00000740223102138202A6BFFF771FB18237F
:102E0000C7A2102150200094FFF7EDFBCDE900741C
:102E1000022310215C206A6BFFF762FB0094287E7E
:102E200010231038C0B205222821FFF7F1FA0094D0
:102E3000287E102306222821FFF7EAFA0094287E34
:102E400010233030C0B204222821FFF7E1FA10230A
:102E50000722302160200096FFF7DAFA10230822BB
:102E6000302170200096FFF7D3FAFFF739FAE869AE
:102E7000002805D0EE616C610094287E102300E0EC
:102E800050E100221146FFF7C3FAE1E10094287EE9
:102E9000102307220021FFF7BBFA0094287E10239D
:102EA0003030C0B208220021FFF7B2FA286A30B1F0
:102EB000012853D002287DD003287CD14AE1102379
:102EC0000922194600200096FFF7A2FA10230222D9
:102ED000194618460096FFF79BFA1023022219465E
:102EE00020200096FFF794FA102303221946302081
:102EF0000096FFF78DFA10230A221946402000960B
:102F0000FFF786FA10230B22194650200096FFF790
:102F10007FFA10230C22202100200094FFF778FA7A
:102F200010230D22202118460094FFF771FA20216A
:102F30001023022208460094FFF76AFA10230322A6
:102F4000202130200094FFF763FA10230A22202169
:102F500040200094FFF75CFA009454E0102309220B
:102F6000194600200094FFF753FA10230222194655
:102F700018460094FFF74CFA102302E0FEE367E2E4
:102F800069E10222194620200094FFF741FA10233C
:102F90000322194630200094FFF73AFA10230A2240
:102FA000194640200094FFF733FA10230B221946EC
:102FB000502001E059E04AE00094FFF729FA10237D
:102FC0000C22202100200096FFF722FA10230D2268
:102FD000202118460096FFF71BFA20211023022219
:102FE00008460096FFF714FA102303222021302010
:102FF0000096FFF70DFA10230A22202140200096A8
:10300000FFF706FA009610230B2220215020FFF72D
:10301000FFF910231122302100200094FFF7F8F966
:1030200000941023122230211846FFF7F1F91023E3
:103030000E22302160200094FFF7EAF9009410235B
:103040000F2230217020FFF7E3F9FFF749F9E86913
:10305000002867D0EE61286A002877D0012876D052
:10306000022875D0032874D1F0E0102309221946F4
:1030700000200094FFF7CCF91023022219461846CD
:103080000094FFF7C5F9102302221946202000946E
:10309000FFF7BEF910230322194630200094FFF7F2
:1030A000B7F910230A22194640200094FFF7B0F91F
:1030B00010230B22194650200094FFF7A9F9102382
:1030C0000C22202100200094FFF7A2F910230D22EA
:1030D000202118460094FFF79BF92021102302229B
:1030E00008460094FFF794F9102303222021302092
:1030F0000094FFF78DF910230A222021402012E0CE
:103100003C0000203C0400209C5800082C0A0020B1
:1031100054090020E40900209C090020E808002050
:103120003A0000004AE10094FFF772F910230B22E5
:10313000202150200094FFF76BF910231122302139
:1031400000200096FFF764F900966AE76DE06EE0F4
:1031500079E07CE010230922194600200094FFF753
:1031600057F910230222194618460094FFF750F928
:1031700010230222194620200094FFF749F910235A
:103180000322194630200094FFF742F910230A2247
:10319000194640200094FFF73BF910230B221946F3
:1031A00050200094FFF734F910230C222021002036
:1031B0000094FFF72DF910230D22202118460094CA
:1031C000FFF726F920211023022208460094FFF77A
:1031D0001FF910230322202130200094FFF718F953
:1031E00010230A22202140200094FFF711F9102318
:1031F0000B22202150200094FFF70AF910231122FE
:10320000302100200094FFF703F91023122230210F
:1032100018460094FFF7FCF810230E22302160209E
:103220000096FFF7F5F8009609E7022000E003207A
:103230006861E96AC8F80010296BC8F80410696B66
:10324000C8F8081003E00420686100E06E612E6297
:10325000FEF73CFF3CE210230922002118460094AF
:10326000FFF7D6F810230222002120200094FFF758
:10327000CFF810230222002130200094FFF7C8F875
:1032800010230322002140200094FFF7C1F81023EF
:103290000A22002150200094FFF7BAF810230B22D5
:1032A000002160200094FFF7B3F8E86938B1286A7C
:1032B000032804D0686A58B10020EE616862286A69
:1032C00040B101281AD0022853D0032876D176E0E5
:1032D0000120F2E7CDE90076022310210E20D8F874
:1032E0000020FFF7FDF81823AFF2CC1210212820A0
:1032F0000094FFF778F9CDE9007412E0CDE900748D
:10330000022310210E20D8F80020FFF7E9F8182337
:10331000AFF2F412102128200094FFF764F9CDE9F0
:103320000076022310213820D8F80420FFF7D8F8BF
:103330001823AFF21422102150200094FFF753F904
:10334000CDE90074022310215C20D8F80820FFF793
:10335000C7F810231A46302100200094FFF758F8D0
:1033600010230B2230211846CDF80040FFF750F80B
:10337000AEE1CDE90074022310210E20D8F8002020
:10338000FFF7AEF81823AFF268221021282000942E
:10339000FFF729F9CDE90074022310213820D8F86D
:1033A0000420FFF79DF81823AFF28C221021502043
:1033B0000094FFF718F9CDE90076C3E7B2E0CDE954
:1033C0000074022310210E20D8F80020FFF788F89F
:1033D0001823AFF2B422102128200094FFF703F93C
:1033E000CDE90074022310213820D8F80420FFF71B
:1033F00077F81823AFF2D822102150200094FFF75D
:10340000F2F8CDE90074022310215C20D8F80820DE
:10341000FFF766F810231A46302100200096FEF7C9
:10342000F7FF10230B22302118460096FEF7F0FF1D
:10343000FEF756FFE869002874D0EE61D8F8001056
:10344000E962D8F804102963D8F808006863E2E15B
:1034500010230C22002118460094FEF7D9FF1023F8
:103460000D22002120200094FEF7D2FF102302221B
:10347000002130200094FEF7CBFF1023032200210F
:1034800040200094FEF7C4FF10230A2200215020A0
:103490000094FEF7BDFF10230B2200216020009452
:1034A000FEF7B6FFFEF71CFFE86938B1286A04286A
:1034B00004D0686A50B10020EE616862286A05286D
:1034C00030D2DFE800F005456AAAFD000120F3E7ED
:1034D000CDE90076022310210E20D8F80020FEF757
:1034E000FFFF1823AFF2C832102128200094FFF705
:1034F0007AF8CDE900743EE0132230210020FEF777
:1035000087FF10231422302118460094FEF780FF15
:10351000CDE900A4022330212020AA6AFEF7E0FFB3
:103520000094CFE0A7E10C2230210020FEF770FFCD
:1035300010230D22302118460094FEF769FF102356
:103540001522302120200094FEF762FF0094D6E07F
:10355000CDE90074022310210E20D8F80020FEF7D8
:10356000BFFF1823AFF24842102128200094FFF734
:103570003AF8CDE90076022310213820D8F804204B
:10358000FEF7AEFF1823AFF26842102150200094DE
:10359000FFF729F8CDE9007423E0CDE90074022398
:1035A00010210E20D8F80020FEF79AFF1823AFF262
:1035B0009042102128200094FFF715F8CDE90074FF
:1035C000022310213820D8F80420FEF789FF1823A1
:1035D000AFF2B442102150200094FFF704F8CDE977
:1035E0000076022310215C20D8F80820FEF778FF2F
:1035F00010231A46302160200094FEF709FF1023A3
:103600000B22302170200094FEF702FFA86A4FF0D1
:1036100010030094002886D06EE7CDE900740223E1
:1036200010210E20D8F80020FEF75AFF1823AFF221
:103630001052102128200094FEF7D5FFCDE9007428
:10364000022310213820D8F80420FEF749FF182360
:10365000AFF23452102150200094FEF7C4FFCDE9A0
:103660000074022310215C20D8F80820FEF738FFF0
:1036700010231A46302160200094FEF7C9FE102363
:103680000B22302170200094FEF7C2FEA86A4FF092
:1036900010030096F8B1132230210020FEF7B8FE87
:1036A00010231422302118460096FEF7B1FECDE912
:1036B00000A6022330212020AA6AFEF711FF00E0B5
:1036C00022E000963021102385A20846FEF78BFFEA
:1036D000FEF706FEE5E00C2230210020FEF798FE02
:1036E00010230D22302118460096FEF791FE10237C
:1036F0001522302120200096FEF78AFE0096102326
:1037000016223021084631E6CDE90074022310214B
:103710000E20D8F80020FEF7E3FE1823AFF2006277
:10372000102128200094FEF75EFFCDE900740223EB
:1037300010213820D8F80420FEF7D2FE1823AFF26B
:103740002062102150200094FEF74DFFCDE9007457
:10375000022310215C20D8F80820FEF7C1FE1023B8
:103760001A46302160200096FEF752FE10230B22ED
:10377000302170200096FEF74BFE00E04DE0A86A75
:103780004FF010030094D8B1132230210020FEF72F
:103790003FFE10231422302118460094FEF738FE15
:1037A000CDE900A4022330212020AA6AFEF798FE6A
:1037B000302110234AA208460094FEF714FF19E0B6
:1037C0000C2230210020FEF723FE10230D22302191
:1037D00018460094FEF71CFE1023152230212020ED
:1037E0000094FEF715FE302110231622084600949F
:1037F000FEF70EFEFEF774FDE869E0B3EE61D8F85F
:103800000020C9F80020D8F80420C9F80420D8F80E
:103810000800C9F808006C6119E50094287E10239F
:1038200011220021FEF7F4FD0094287E1023303091
:10383000C0B212220021FEF7EBFDDFF8A8B0CDE9FF
:103840000076022310210E20DBF80020FEF748FE50
:103850001823AFF23472102128200094FEF7C3FE23
:10386000CDE90074022310213820DBF80420FEF794
:1038700037FE182300E014E0AFF25C7210215020F4
:103880000094FEF7B0FECDE90074022310215C2005
:10389000DBF80820FEF724FEFEF722FDE86900B100
:1038A000AC63A86818B12320FCF78AFEAE60A86A52
:1038B00000283FF463AAD9F80010EA6A484691420A
:1038C0007FF45CAA4268296B8A42F9D1D9F80800D2
:1038D000696B8842F4D1FCF7C5FDFFF74FBA0000D1
:1038E000487A0000DC0800204FF04070E1EE100A3A
:1038F00070470000000000000000002F00000000E2
:103900000700070000147F147F1400242A7F2A1266
:103910000062640813230036495522500000050355
:10392000000000001C224100000041221C00001485
:10393000083E08140008083E0808000000A06000C7
:103940000008080808080000606000000020100857
:103950000402003E5149453E0000427F40000042C3
:1039600061514946002141454B31001814127F1026
:10397000002745454539003C4A4949300001710955
:10398000050300364949493600064949291E000009
:1039900036360000000056360000000814224100B0
:1039A00000141414141400004122140800020151E0
:1039B000090600324959513E007C1211127C007FE9
:1039C00049494936003E41414122007F4141221C84
:1039D000007F49494941007F09090901003E4149E9
:1039E000497A007F0808087F0000417F41000020DD
:1039F00040413F01007F08142241007F4040404089
:103A0000007F020C027F007F0408107F003E4141CE
:103A1000413E007F09090906003E4151215E007FB9
:103A2000091929460046494949310001017F010130
:103A3000003F4040403F001F2040201F003F4038D3
:103A4000403F006314081463000708700807006112
:103A50005149454300007F41410000552A552A55F0
:103A6000000041417F000004020102040040404088
:103A70004040000001020400002054545478007FAC
:103A80004844443800384444442000384444487F83
:103A900000385454541800087E0901020018A4A4E8
:103AA000A47C007F080404780000447D40000040AE
:103AB00080847D00007F102844000000417F40008A
:103AC000007C04180478007C08040478003844441E
:103AD000443800FC242424180018242418FC007CFA
:103AE0000804040800485454542000043F44402073
:103AF000003C4040207C001C2040201C003C40300A
:103B0000403C004428102844001CA0A0A07C004495
:103B100064544C44141414141414000000000000E5
:103B20000000000000000000FC0000000000020097
:103B30000000000C020C020000000000000090D009
:103B4000BCD0BC900003000300001824FE448C008D
:103B50000302070201001824D8B04C8000030001C2
:103B60000201C038E438E000010202010202080646
:103B700000000000000000000000000000F8040247
:103B8000000000010204000204F800000004020129
:103B900000009060F860900000000100000020200C
:103BA000FC202000000001000000000000000000D8
:103BB0000806000000002020202020000000000057
:103BC0000000000000000000000200000000008073
:103BD000601C0200040300000000F8040404F80064
:103BE0000102020201000008FC00000000020302C2
:103BF0000000188444241800030202020200080492
:103C00002424D80001020202010040B088FC800098
:103C10000000000302003C242424C400010202022C
:103C20000100F824242CC0000102020201000C044F
:103C3000E41C0400000003000000D8242424D80061
:103C400001020202010038444444F8000003020269
:103C50000100000010000000000002000000000051
:103C60002000000000000600000000205088040230
:103C70000000000001029090909090000000000071
:103C80000000000204885020000201000000180417
:103C9000C4241800000002000000F804E494F800B6
:103CA00001020202020000E09CF08000020300001A
:103CB000030204FC2424D800020302020100F804D9
:103CC00004040C0001020202010004FC0404F800D8
:103CD00002030202010004FC24740C00020302022D
:103CE000030004FC24740C00020302000000F0082E
:103CF0000444CC4000010202010004FC2020FC042A
:103D00000203000003020404FC0404000202030294
:103D10000200000404FC040406040403000004FC84
:103D200024D00C0402030200030204FC040000007F
:103D3000020302020203FC3CC03CFC00030003003F
:103D4000030004FC30C4FC04020302000300F80476
:103D50000404F80001020202010004FC24241800FB
:103D6000020302000000F8848404F8000102020744
:103D7000050004FC246498000203020003021824D6
:103D800024448C000302020201000C04FC040C0019
:103D900000020302000004FC0000FC040001020217
:103DA0000100047C80E01C040000030000001CE013
:103DB0003CE01C00000300030000049C609C040025
:103DC000020300030200041CE01C040000020302C2
:103DD00000000C84641C04000203020203000000C3
:103DE000FE020200000007040400000E30C00000C4
:103DF000000000010200000202FE000000040407AF
:103E000000000004020400000000000000000000A8
:103E10000000000008080808080800000200000070
:103E20000000000000000040A0A0C000000102024D
:103E3000030204FC2020C00000030202010000C0B5
:103E40002020600000010202020000C02024FC00CB
:103E500000010202030200C0A0A0C0000001020293
:103E600002000020F82424040002030202000040A3
:103E7000A0A0602000070A0A0A0404FC2020C00059
:103E80000203020003020020E4000000000203021B
:103E90000000000020E4000008080807000004FCFF
:103EA00080E020200203020003020404FC00000062
:103EB000020203020200E020E020C0000300030031
:103EC000030020E02020C00002030200030200C023
:103ED0002020C00000010202010020E02020C000DC
:103EE000080F0A02010000C02020E0000001020AC1
:103EF0000F0820E0402020000203020000000060C4
:103F0000A0A020000002020203000020F820000010
:103F100000000102020020E00020E0000001020297
:103F2000030220E020806020000003010000608088
:103F3000E08060000003000300002060806020003B
:103F400002030003020020E020806020080807012F
:103F500000000020A0602000000203020200000018
:103F600020DE0200000000070400000000FF000047
:103F70000000000F00000002DE2000000004070027
:103F80000000020102040402000000000000000022
:103F90000000000000000000000000000000000021
:103FA00000F80000000000000033300000000010A6
:103FB0000C06100C0600000000000000000040C0CD
:103FC0007840C0784000043F04043F0404000070BF
:103FD00088FC08300000001820FF211E0000F008B7
:103FE000F000E018000000211C031E211E0000F05C
:103FF0000888700000001E212324192721101016A4
:104000000E000000000000000000000000000000A2
:1040100000E0180402000000000718204000000221
:104020000418E00000000040201807000000404095
:1040300080F0804040000202010F010202000000F7
:1040400000F0000000000101011F0101010000005B
:1040500000000000000080B07000000000000000C0
:104060000000000000000001010101010101000049
:1040700000000000000000303000000000000000E0
:10408000000080601804006018060100000000E0D5
:1040900010080810E000000F102020100F00001082
:1040A00010F8000000000020203F202000000070D9
:1040B00008080888700000302824222130000030D1
:1040C0000888884830000018202020110E000000C9
:1040D000C02010F8000000070424243F240000F84A
:1040E0000888880808000019212020110E0000E02F
:1040F000108888180000000F112020110E000038D1
:104100000808C83808000000003F000000000070E8
:10411000880808887000001C222121221C0000E071
:1041200010080810E0000000312222110F000000EA
:1041300000C0C0000000000000303000000000009F
:10414000008000000000000080600000000000000F
:1041500080402010080000010204081020004040A8
:1041600040404040400004040404040404000008EB
:1041700010204080000000201008040201000070A0
:1041800048080808F0000000003036010000C03088
:10419000C828E810E0000718272423140B000000AB
:1041A000C038E0000000203C23020227382008F835
:1041B000888888700000203F202020110E00C03029
:1041C000080808083800071820202010080008F800
:1041D00008080810E000203F202020100F0008F8F9
:1041E0008888E8081000203F20202320180008F8C5
:1041F0008888E8081000203F200003000000C0303D
:1042000008080838000007182020221E020008F8BD
:1042100008000008F808203F210101213F20000884
:1042200008F8080800000020203F202000000000BF
:104230000808F8080800C08080807F00000008F8A7
:1042400088C028180800203F20012638200008F8E0
:10425000080000000000203F20202020300008F847
:10426000F800F8F80800203F003F003F200008F861
:1042700030C00008F808203F200007183F00E01079
:1042800008080810E0000F10202020100F0008F888
:1042900008080808F000203F210101010000E0109B
:1042A00008080810E0000F18242438504F0008F8C0
:1042B000888888887000203F2000030C3020007020
:1042C0008808080838000038202121221C0018081E
:1042D00008F8080818000000203F2000000008F837
:1042E00008000008F808001F202020201F00087880
:1042F000880000C83808000007380E010000F808E0
:1043000000F80008F800033C0700073C0300081809
:1043100068808068180820302C03032C302008386F
:10432000C800C83808000000203F20000000100826
:104330000808C8380800203826212020180000006E
:1043400000FE020202000000007F40404000000C1E
:1043500030C000000000000000010638C00000026C
:104360000202FE000000004040407F00000000000C
:10437000040202020400000000000000000000002F
:10438000000000000000808080808080808000022B
:104390000204000000000000000000000000000017
:1043A0008080808000000019242222223F2008F80B
:1043B000008080000000003F112020110E0000004E
:1043C000008080800000000E1120202011000000DD
:1043D00000808088F800000E112020103F2000008F
:1043E000808080800000001F222222221300008093
:1043F00080F0888888180020203F202000000000DE
:10440000808080808000006B94949493600008F812
:10441000008080800000203F210000203F2000809D
:104420009898000000000020203F2020000000009D
:1044300000809898000000C08080807F000008F80D
:10444000000080808000203F24022D3020000008E2
:1044500008F8000000000020203F2020000080809D
:10446000808080808000203F20003F20003F8080AF
:10447000008080800000203F210000203F200000BD
:10448000808080800000001F202020201F0080806E
:1044900000808000000080FFA12020110E0000009D
:1044A000008080808000000E112020A0FF8080808E
:1044B00080008080800020203F212000010000003B
:1044C0008080808080000033242424241900008010
:1044D00080E0808000000000001F2020000080801D
:1044E000000000808000001F202020103F208080DE
:1044F00080000080808000010E300806010080806E
:104500000080008080800F300C030C300F00008092
:104510008000808080000020312E0E3120008080BD
:1045200080000080808080818E70180601000080ED
:104530008080808080000021302C2221300000000B
:104540000000807C020200000000003F40400000AC
:104550000000FF00000000000000FF00000000025B
:10456000027C800000000040403F00000000000688
:10457000010102020404000000000000000000002D
:10458000000000000000000000000000000000002B
:10459000000000000000000000000000000000001B
:1045A00000000000000000F0F0F00000000000003B
:1045B000000000017F010000000000000000001C5E
:1045C0001C1C0000000000008060301C8C60301C4F
:1045D0000C000000000000000000000000000000CF
:1045E00000000000000000000000000000E00000EB
:1045F000000000E000000086E69F86868686E69F33
:10460000860000011F01010101011F0101000000DE
:1046100080C06020F820E0C00000000003070C18F4
:10462000FF70E18100000000070F10107F100F07DE
:1046300000008060206080000000E02000000F305B
:1046400020309F70DC371030C0000000100E0300D7
:104650000718101807000000C02020E0C00000006C
:10466000000080E01F38E88703C43C040000070F07
:104670001810100B070D1010080000808C4C38002B
:10468000000000000000000000000000000000002A
:10469000000000000000000000000000000000001A
:1046A0000000000080E0300804000000000000FE70
:1046B000FF0100000000000000000000030F1820B0
:1046C000400000040830E08000000000000000000E
:1046D000000001FFFE0000000000004020180F0352
:1046E000000000000000000000000000C00000000A
:1046F0000000004266663C18FF183C6666420000F7
:1047000000000000030000000000000000000000A6
:10471000800000000000001010101010FF1010109A
:104720001010000000000000030000000000000066
:104730000000000000000000000000000000000079
:1047400000000000000000808C4C380000000000D9
:104750000000000000000000000000000000001049
:1047600010101010101010101000000000000000B9
:104770000000000000000000000000000000000039
:104780000000000000000000000000000000000029
:104790001C1C1C00000000000000000000000000C5
:1047A0000000E0380C000000000080701C030000D6
:1047B00000000060380E0100000000000000000052
:1047C00080C060202060C080000000FEFF0100006B
:1047D000000001FFFE000001070E181010180E0760
:1047E00001000000808080C0E000000000000000A8
:1047F000000000FFFF000000000000001010101F6C
:104800001F10101000000080402020202060C08079
:10481000000000030300804020381F070000001C38
:104820001A1918181818181F00000080C02020201E
:1048300060C080000000000303001010182FE78004
:10484000000000070F10101010180F0700000000E4
:1048500000000000C0E0F000000000C0B0888681C9
:1048600080FFFF808000000000000010101F1F105C
:1048700010000000E06060606060606000000000A8
:104880003F1008080818F0E0000000070B10101097
:10489000101C0F030000000080C040202020E0C05A
:1048A000000000FCFF211008080818F0E0000001DB
:1048B000070C18101010080F03000000C0E0606023
:1048C000606060E06000000003000000E018070086
:1048D000000000000000001F1F000000000000801A
:1048E000C0602020202060C080000087EF2C1818B6
:1048F000303068CF830000070F0810101010180F19
:1049000007000000C0C020202020C0800000001F41
:104910003F604040402010FFFE0000000C1C1010C3
:1049200010080F030000000000000000000000005D
:10493000000000000000000E0E0E0000000000004D
:104940000000001C1C1C0000000000000000000013
:1049500000000000000000000000000C0C0000003F
:1049600000000000000000583800000000000000B7
:104970000000000000804020100000001028448249
:104980000100000000000000000000000102040817
:104990001000000000000000000000000000008483
:1049A0008484848484848484840000000000000063
:1049B0000000000000000000102040800000000007
:1049C00000000000000000000182442810000000E8
:1049D0001008040201000000000000C02020101098
:1049E000101030E0C0000003030000F010080C07B6
:1049F0000300000000001C1C1C0000000000000060
:104A000000C0406020202040C00000FCFF01F00EEC
:104A100003C1FE03807F0001070E08111110110968
:104A200004020000000080E0E00000000000000040
:104A3000807C4340477FF880000010181F10000062
:104A40000000131F1C1020E0E02020202060C08008
:104A5000000000FFFF10101010182FE78000101F3B
:104A60001F1010101010180F0700000080C0402009
:104A700020202060E00000FCFF010000000000009A
:104A800001000001070E181010100804030020E0B8
:104A9000E02020202040C080000000FFFF00000038
:104AA000000001FFFE00101F1F10101018080E0755
:104AB000010020E0E020202020202060800000FF76
:104AC000FF101010107C00000000101F1F101010AD
:104AD00010101018060020E0E02020202020606048
:104AE000800000FFFF101010107C00000100101F5C
:104AF0001F100000000000000000000080C06020C7
:104B0000202040E0000000FCFF0100004040C0C148
:104B100040400001070E181010100F0F000020E099
:104B2000E0200000000020E0E02000FFFF10101057
:104B3000101010FFFF00101F1F1000000000101FBA
:104B40001F100000202020E0E020202000000000B6
:104B5000000000FFFF000000000000001010101F08
:104B60001F101010000000000000202020E0E020B6
:104B7000202000000000000000FFFF000000006097
:104B8000E0808080C07F3F00000020E0E020000047
:104B900020A06020200000FFFF30187CE3C0000050
:104BA0000000101F1F10000001131F1C181020E030
:104BB000E020000000000000000000FFFF000000F7
:104BC000000000000000101F1F101010101010181F
:104BD000060020E0E0E000000000E0E0E02000FF50
:104BE000013FFEC0E01E01FFFF00101F1000031F69
:104BF0000300101F1F1020E0E0C000000000002094
:104C0000E02000FF0003071C78E08000FF00101F79
:104C1000100000000000030F1F00000080C0602093
:104C20002060C080000000FEFF010000000000FFC7
:104C3000FE000001070E181010180C07010020E0FC
:104C4000E0202020202060C0800000FFFF202020E6
:104C50002020301F0F00101F1F1000000000000058
:104C60000000000080C060202060C080000000FEC6
:104C7000FF010000000000FFFE000001070E1111FF
:104C8000133C7C67210020E0E0202020202060C031
:104C9000800000FFFF101030F0D0080F0700101F39
:104CA0001F10000000030F1C10100080C0602020A7
:104CB00020204040E00000070F0C1818303060E062
:104CC0008100001F0C0810101010180F07008060E2
:104CD000202020E0E020202060800100000000FF74
:104CE000FF000000000100000000101F1F10000066
:104CF000000020E0E020000000000020E02000FF95
:104D0000FF00000000000000FF0000070F18101057
:104D10001010100807002060E0E02000000020E0F4
:104D200060200000077FF88000807C030000000006
:104D30000000071F1C070000000020E0E02000E04A
:104D4000E0200020E0200007FFF8E01FFFFCE01F4C
:104D500000000000031F0300011F030000000020EB
:104D600060E0A0000020E0602000000000038F7CD5
:104D7000F8C6010000000010181E130001171F18CC
:104D800010002060E0E02000000020E06020000033
:104D900001073EF8E0180700000000000010101F97
:104DA0001F101000000000806020202020A0E0E004
:104DB000200000000000C0F03E0F030000000010C3
:104DC0001C1F17101010101806000000000000FC37
:104DD0000404040404000000000000FF00000000C0
:104DE000000000000000007F404040404000000004
:104DF00010E0000000000000000000000000031CA4
:104E000060800000000000000000000000030C7043
:104E1000800000000404040404FC00000000000002
:104E20000000000000FF0000000000004040404083
:104E3000407F0000000000000010080C040C081067
:104E40000000000000000000000000000000000062
:104E50000000000000000000000000000000000052
:104E60000000000000000000000000000000000042
:104E70000000808080808080808080808080000032
:104E8000000404080800000000000000000000000A
:104E90000000000000000000000000000000000012
:104EA0000000000000000000000000000000000002
:104EB00098D844642424FCF80000000F1F18101038
:104EC00010081F1F10180020E0F000000000000074
:104ED00000000000FFFF180804040CF8F0000000B8
:104EE0001F0F18101010180F030000000000000022
:104EF00000000000000000E0F8180404043C380042
:104F0000000000030F0C1010101008060000000035
:104F1000000000000020E0F0000000E0F81C0404A5
:104F20000408FFFF000000030F18101010081F0FE7
:104F30000800000000000000000000000000000069
:104F4000E0F8484444444C7870000000030F0C180B
:104F50001010100804000000000080C0602020E055
:104F6000C00000040404FFFF040404040000000067
:104F700010101F1F101010000000000000000000A3
:104F8000000000000000000070F88C04048CF8742D
:104F9000040C007076CF8D8D8D89C878700000204C
:104FA000E0F000000000000000000000FFFF080427
:104FB0000404FCF8000000101F1F100000101F1F49
:104FC0001000000000000060600000000000000011
:104FD000040404FCFC000000000000001010101F7E
:104FE0001F101010000000000000000000606000B2
:104FF000000000000000040404FCFC0000000000AD
:10500000C0C08080C07F3F0000000020E0F00000B2
:105010000000000000000000FFFF80C0F41C04043A
:10502000000000101F1F1100031F1C1010000000C3
:10503000202020E0F000000000000000000000FF41
:10504000FF000000000000001010101F1F101010C3
:10505000000000000000000000000000000004FC50
:10506000FC0804FCFC0804FCFC00101F1F10001FBF
:105070001F10001F1F1000000000000000000000B3
:1050800000000004FCFC08080404FCF80000001008
:105090001F1F100000101F1F100000000000000064
:1050A00000000000000000E0F0180C04040C18F0F0
:1050B000E00000030F0C101010100C0F0300000094
:1050C000000000000000000000000004FCFC0804D8
:1050D00004040CF8F0000080FFFF889010101C0FF3
:1050E000030000000000000000000000000000E0DD
:1050F000F81C04040408F8FC000000030F1810104A
:105100009088FFFF80000000000000000000000009
:105110000000040404FCFC100804040C0C00101033
:10512000101F1F1010100000000000000000000001
:1051300000000000000000003078CCC48484840C9F
:105140001C0000001E1810101011190F060000009E
:10515000000000C000000000000000040404FFFF85
:10516000040404000000000000000F1F1010100CC9
:10517000000000000000000000000000000000042B
:10518000FCFE00000004FCFE000000000F1F1810D1
:1051900010081F0F080000000000000000000000C1
:1051A000000000040C3CFCC40000C43C0C040000E3
:1051B0000000010F1E0E01000000000000000000B2
:1051C000000000000000043CFCC400E47CFC84807F
:1051D0007C040000071F070000071F0700000000F5
:1051E000000000000000000000000004041C7CE43B
:1051F000C0341C0404000010101C1601131F1C18DE
:10520000100000000000000000000000000000048A
:105210000C3CFCC400C43C0404000000C080C13746
:105220000E0100000000000000000000000000006F
:10523000000000001C0404C4F47C1C0400000000F6
:10524000101C1F17111010180E00000000000000A5
:1052500000F80C04000000000000001028EF00001F
:105260000000000000000000003F6040000000005F
:1052700000000000FF00000000000000000000002F
:10528000FF0000000000000000000000FF00000020
:1052900000000000040CF800000000000000000006
:1052A0000000EF28100000000000000040603F00F8
:1052B0000000000000000018060202040810202070
:1052C00030080000000000000000000000000000A6
:1052D00000000000000000000000048484FC8484BE
:1052E00000FE0202F20202FE00002060201F109069
:1052F00040231806017E8083E000080888C8380C27
:105300000B0808E8080808080800020100FF4041EF
:105310004141417F41414141400000FC848484FC83
:10532000001010101010FF101000003F1010103F60
:105330000000010640807F00000000F8010600F038
:10534000121212F2020202FE000000FF0000001F13
:105350001111111F0040807F0000060909E6F80CBA
:10536000040202020202041E0000000000071F30B7
:1053700020404040404020100000100C2424A46431
:1053800025262424A42424140C00404048494949DB
:10539000497F4949494B484040001060028C000059
:1053A000FE9292929292FE00000004047E01407EE2
:1053B00042427E427E42427E4000040444C44F4446
:1053C00044C424242FB424040400C0C4A4A4958C91
:1053D00084FE848C95A4A4C4C0800000F8494A4C83
:1053E00048F8484C4A49F8000000909093929292F5
:1053F00092FF929292929390908040404848484801
:1054000048FF48484848484040008040201E20400F
:10541000407F4444444444404000404042CC00402B
:10542000A09E8282829EA02020000000003F9088E3
:1054300040432C10284641808000100C44444444D2
:1054400045C64444444444140C008040201E20407F
:10545000407F444444444440400000F8012220225C
:105460002AF22222222202FE000000FF00001F0179
:10547000017F09110F40807F000020102CE72424B9
:1054800000F01010FF1010F000000101017F211149
:1054900000070202FF0202070000404042CC000069
:1054A000FC24A4242222A36200000040201F2058D4
:1054B000475048454245485040000000FE0202F275
:1054C000121212F20202FE00000000007F202027CC
:1054D0002424242720207F0000000484E45C44C4AA
:1054E0002010E82724E4342CE00002017F10103F54
:1054F00080601F09093F49897F002424A4FE2322DC
:1055000000C03800FF0008106000080601FF010617
:105510008180404027100C03000000042424242430
:1055200024FF242424242404000021211109FD83C4
:1055300041230509112925414100407C407F48480D
:1055400040F2121AD61212F20200908E404F201E24
:10555000804F20180710204F80000014A4442434EA
:10556000AD6624940444A41400000809080809093D
:1055700009FD09090B0808090800000010111610A0
:1055800010F010101413100000008181414121110E
:105590000D030D1121414181810000F801222022DB
:1055A00022A2FA22222202FE000000FF00080402CA
:1055B00011201F000040807F0000000000C080809C
:1055C0008080808080FC84808080808080C0C0005B
:1055D0000000000000FF7F404040404040FF40404E
:1055E0004040404040FF7F000000000000000000FD
:1055F00000000000007F70000000000000000000BC
:10560000000000000000000000000000000000009A
:1056100000FCF80000000000000000000000000096
:10562000000000000000FFFE02020202020202026D
:1056300002FFFF020202020202020202FF03000056
:105640000000000000001F1F0404040404040404FC
:1056500004FFFF0404040404040404041F00000005
:10566000000000000000000000000000000000003A
:10567000007F3F000000000000000000000000006C
:10568000000000000000000000000000000000001A
:10569000000000000000000000000000000000F812
:1056A000F8F0F07020000000000000000000000092
:1056B00000000000000000000000000000000000EA
:1056C000000000000000000000008000000000005A
:1056D000000000000000000000000000000000FFCB
:1056E000FFFFFF00000000000000000000000000BD
:1056F00000000000000080800000000000000000AA
:105700000000000000000000000000FFFFFE060691
:10571000060606060606060606060606060606FF30
:10572000FFFFFF060606060606060606060606062E
:105730000606060606FFFFFFFF0702000000000046
:105740000000000000000000000000FFFFFF00005C
:10575000000000000000000000000000000000FF4A
:10576000FFFFFF000000000000000000000000003C
:105770000000000000FFFFFFFF000000000000002D
:105780000000000000000000000000FFFFFF1818EC
:10579000181818181818181818181818181818FFA2
:1057A000FFFFFF18181818181818181818181818C4
:1057B0001818181818FFFFFFFF0000000000000075
:1057C00000000000000000000000020101000000D5
:1057D000000000000000000000000000000000FFCA
:1057E000FFFFFF00000000000000000000000000BC
:1057F00000000000000101000000000000000000A7
:105800000000000000000000000000000000000098
:10581000000000000000000000000000000000FF89
:10582000FFFFFF000000000000000000000000007B
:105830000000000000000000000000000000000068
:105840000000000000000000000000000000000058
:105850000000000000000000000000000000001F29
:105860001F0F0F00000000000000000000000000FB
:105870000000000000000000000000000000000028
:105880000000000000000000000001020304060701
:10589000080900000000010203040000E9858DE70B
:1058A000BDAEE5BD93E5898DE697B6E997B4E6A070
:1058B000BCE5BC8FEFBC9A74696D6548484D4D538B
:1058C00053EFBC8CE9858DE7BDAEE997B9E9929FAE
:1058D000E697B6E997B4E6A0BCE5BC8FEFBC9A6347
:1058E0006B48484D4D53534646EFBC884848E5B099
:1058F0008FE697B6EFBC8C4D4DE58886E9929FEF19
:10590000BC8C5353E7A792E9929FEFBC8C4646E9C3
:10591000A291E78E87EFBC88E58D95E4BD8D487A2E
:10592000EFBC89EFBC890000485900080000002046
:105930005C040000D0010008CC5B00085C0400207F
:10594000740C00002C0200080118023020800A802C
:10595000E0F0FE3C2060C080D510F8F07035F038E3
:105960001C0C4EC0C0E0FCFC27A0108080C0F07072
:1059700030808080FCF840607010C5E0F0F0E000FE
:105980000D1538F08098909080A0901C1C08500C49
:105990003E387DFFFFFF7C7C3F0301380C3070F008
:1059A0003E3FBFF8F8F8181057100A088CC6FF7F62
:1059B000FA300C061C313F372A2BFF078A580EE0BD
:1059C000FFFF3FEEC7BDBDFFFFEEFEFFBA1E30304A
:1059D00038B0F0211C3F0C060141D80E1C1F1F0FD0
:1059E00027339BD9FDFFBF8381F3483070D0D0D0DF
:1059F0005050707040C0F0F1F3C2E6F6B6E2E3A09A
:105A00008010F0F0F0B0A1F3F3F1A1A1A080C0C02C
:105A100040C0C08080C1C141C2C7820E2C879FC1D7
:105A20000711181481C0C041C0C1018181C1C1C129
:105A3000010383C3C342C22A2FC0C141C1C1813106
:105A40004CC3C7863118098183CFC949CDCF8F296F
:105A50002A414D4954115833037F7F4E6F693F1FD0
:105A60003F6969493F3F3F7F7F4A4A7F7F1F1F1F32
:105A7000233F3F1F13027F7F7F223E3E6070784CA2
:105A80004F47433F7F7140717F3F0E580820644469
:105A9000447F7B390731237F7FC92309130E5907C0
:105AA0002008474F4F487F3F1F282E08E8E8A8B836
:105AB000B8B8A8A8E8E80898D0D0D0F0F898F0F0E6
:105AC000D0D09020F8F8F8E8C8E8F8B89898C06006
:105AD0006020E0E0C0C0E0E0074A400E49076A806D
