:020000040800F2
:10000000D8100020750200080F290008752200088A
:100010000D290008E1050008513400080000000027
:10002000000000000000000000000000FB2D0008A0
:10003000E305000800000000F92D0008452E000827
:100040008F0200088F0200088F0200088F0200084C
:100050008F0200088F0200088F0200088F0200083C
:100060008F0200088F0200088F0200088F0200082C
:100070008F0200088F0200088F0200088F0200081C
:100080008F0200088F0200088F02000800000000A5
:100090000000000000000000000000008F020008C7
:1000A0008F0200088F0200088F0200088F020008EC
:1000B0008F0200088F020008ED2E00088F02000852
:1000C0008F0200088F0200088F0200088F020008CC
:1000D0008F0200088F02000845340008000000006D
:1000E000E50500088F0200088F02000800000000EC
:1000F0000000000000000000000000008F02000867
:10010000000000008F020008F92E00088F0200088E
:1001100000000000000000000000000000000000DF
:100120008F0200088F0200088F0200088F0200086B
:100130008F02000800000000000000000000000026
:100140000000000000000000000000008F02000816
:100150008F0200088F0200088F0200088F0200083B
:100160008F0200088F02000800000000000000005D
:10017000000000000000000000000000000000007F
:10018000000000008F0200080000000000000000D6
:100190008F02000800F002F800F05CF80AA090E876
:1001A000000C82448344AAF10107DA4501D100F032
:1001B00051F8AFF2090EBAE80F0013F0010F18BFA3
:1001C000FB1A43F0010318470C6300002C63000086
:1001D0000A444FF0000C10F8013B13F0070408BF6D
:1001E00010F8014B1D1108BF10F8015B641E05D00B
:1001F00010F8016B641E01F8016BF9D113F0080FC0
:100200001EBF10F8014BAD1C0C1B09D16D1E58BF51
:1002100001F801CBFAD505E014F8016B01F8016B88
:100220006D1EF9D59142D6D37047000000230024FB
:1002300000250026103A28BF78C1FBD8520728BFF6
:1002400030C148BF0B6070471FB504F019F81FBDDF
:1002500010B510BD00F0CFF81146FFF7F5FF03F021
:1002600009F900F0EDF803B4FFF7F2FF03BC00F06A
:10027000F1F800000948804709480047FEE7FEE71B
:10028000FEE7FEE7FEE7FEE7FEE7FEE7FEE7FEE746
:1002900004480549054A064B70470000DD2E00085A
:1002A00095010008D80A0020D8100020D80C0020A2
:1002B000D80C002053EA020C00F069802DE9F04BC5
:1002C0004FF00006002B1FBFB3FA83F503FA05F4C5
:1002D00024FA05F65E4012BF1643B2FA82F502FA1E
:1002E00005F4C5F120051EBF22FA05FC44EA0C0402
:1002F000203556EA044C4FEA144418BF641C4FF0F2
:1003000000084FF00009904271EB030C39D300292B
:1003100019BFB1FA81F701FA07F6B0FA80F700FACF
:1003200007F6C7F120071EBF20FA07FC46EA0C06B5
:100330002037B6FBF4FCA7EB0507103F07F01F0BB7
:10034000CBF120060CFA0BFB2CFA06F644BFB346A1
:100350000026202FA4BF5E464FF0000B5BEA060C80
:1003600008BF4FF0010B19EB0B09ABFB027C48EB0C
:100370000608C01B06FB02CC0BFB03CC71EB0C0187
:10038000C1E70B46024641464846BDE8F08B13B52F
:100390004FF000004FF00001AFF30080BDE81C40BB
:1003A00070474FF0000200B5134694469646203938
:1003B00022BFA0E80C50A0E80C50B1F12001BFF41E
:1003C000F7AF090728BFA0E80C5048BF0CC05DF884
:1003D00004EB890028BF40F8042B08BF704748BFD2
:1003E00020F8022B11F0804F18BF00F8012B704746
:1003F000704770477047754600F028F8AE46050014
:100400006946534620F00700854618B020B5FFF72F
:100410003FFFBDE820404FF000064FF000074FF0CF
:1004200000084FF0000B21F00701AC46ACE8C00912
:10043000ACE8C009ACE8C009ACE8C0098D4670471B
:100440000446AFF300802046FFF70DFF00487047D9
:10045000780A002001491820ABBEFEE72600020002
:10046000704700002DE9FC410021594801F084FB50
:10047000584D0520286102F04BFA01240094287D94
:1004800010232030C0B20222002102F091FB009420
:10049000287D10233030C0B20322002102F088FBF7
:1004A0001826CDE90064022310210E20AA6A02F06A
:1004B000E7FB182348A210212820009402F063FCD7
:1004C000CDE90064022310213820EA6A02F0D8FB4B
:1004D000182341A210215020009402F054FCCDE9D1
:1004E0000064022310215C202A6B02F0C9FB0094F7
:1004F000287D10231838C0B21D22282102F058FB95
:100500000094287D10230838C0B21E22282102F052
:100510004FFB0094287D10230830C0B21F222821F1
:1005200002F046FB0094287D10231830C0B2202230
:10053000282102F03DFB0094287D10232830C0B212
:100540002222282102F034FB0094287D1023383029
:10055000C0B22422282102F02BFB0094287D102316
:100560004830C0B22522282102F022FB02F07AFA9C
:10057000E6031A4C4FF4FA7708E03146204600F0C3
:1005800086FA686A97FBF0F000F098F8A8690028EE
:10059000F3D0002731462046AF6100F073FA0128FE
:1005A00003D13146204600F072FA0121204600F0C6
:1005B00069FA012803D10121204600F068FA0021E0
:1005C000034801F081FA2F61BDE8FC4102F0A0B9B7
:1005D0005C090020000000203A00000000000240FA
:1005E000FEE7704710B54FF4805000F04FF94FF41C
:1005F000005000F04BF9BDE810404FF4804000F08F
:1006000045B972B6FEE72DE9F0410446876D00F06A
:100610004BFA064694F835000025022806D08020C3
:10062000606584F834500120BDE8F08120680168DD
:1006300021F0160101602068416921F080014161CB
:10064000206C08B9A06C20B12068016821F0080175
:1006500001602068016821F0010101600CE000F0F8
:1006600023FA801B052807D920206065032084F821
:10067000350084F83450D7E720680068C007EED111
:1006800094F85C103F208840B860012084F8350061
:1006900084F834500020C7E790F83510022903D0C1
:1006A0008021416501207047052180F835100068E0
:1006B000016821F0010101600020704770B5044617
:1006C00000F0F2F90546601C02D0044800780444AA
:1006D00000F0EAF9401BA042FAD370BD5404002098
:1006E0002DE9F047664C014601266068B1F5805F50
:1006F0000FD07703DFF88C81634D4FF48049B94206
:100700005ED1002809D13946404600F0BBF930B12E
:1007100027E0002801D16660A661BDE8F087494660
:10072000404600F0AFF901281BD1206A0028E0699B
:1007300007D003280EDA2169022905D0032903D046
:100740000FE0401CE0610CE055F82010491C45F812
:10075000201006E005D12069032802D1606A401C00
:1007600060622868182800DB0020286068683C2840
:1007700000DB00206860A8683C2800DB0020A8603F
:10078000E1690020042905DB2169012901D0022942
:1007900000D1E0612169032904D1E269052A01DB66
:1007A000E0616AE0E269032A03D066DB0429F7D03E
:1007B00063E00329FAD1616A0A295EDD60625CE0C8
:1007C0004945AAD10028A8D14946404600F05AF927
:1007D00008BB3946404600F055F901281BD1206A74
:1007E0000028E06907D003280EDA2169022905D024
:1007F000032903D00FE0401EE0610CE055F8201003
:10080000491E45F8201006E005D12069032802D1D1
:10081000606A401E60622868002800DA172028609D
:100820006868002800DA3B206860A868002800DAC1
:100830003B20A860E069002806DA2069012801D081
:10084000022801D10320E0612069032804D1E16975
:10085000002901DA0420A3E7E169032901D1032873
:1008600002D0042805D008E0606A002805DA0A20D2
:10087000A4E7002901DA022092E766604DE7000054
:100880000000002000040240F0080020044910B5D8
:100890000A68024202D00860FFF722FF10BD000084
:1008A000143C01402DE9F84FDFF8B8A100220124E3
:1008B00003254FF00F090AF1040BAAF1040E00BF43
:1008C0000B6804FA02F63340B34273D10F7907F094
:1008D0000307012F01D0022F16D187684FEA420883
:1008E00005FA08FC27EA0C07D1F80CC00CFA08FC42
:1008F0004CEA070CC0F808C04768B7430E79C6F346
:10090000001696403E4346600E79F643B6070DD07A
:10091000C768560005FA06FC27EA0C07D1F808C09C
:100920000CFA06FC4CEA070CC0F80CC00E7906F075
:100930000306022E10D1D60800EB8608D8F82060F6
:1009400057074FEAD76C09FA0CF7BE430F6907FA4D
:100950000CF73743C8F8207006684FEA420C05FAD6
:100960000CF7BE430F7907F0030707FA0CF737437C
:1009700007604E6816F4403F6DD03B4E376847F431
:1009800080473760366822F0030706F480460096F9
:10099000364E07EB060CDCF8086897073F0F09FA9C
:1009A00007F826EA0806DFF8C880404503D14FF073
:1009B00000081EE04FE0DFF8BC80404502D14FF058
:1009C000010816E0DFF8B080404502D14FF0020880
:1009D0000FE0DFF8A880404502D14FF0030808E09F
:1009E000DFF89C80404502D14FF0040801E04FF051
:1009F000070808FA07F848EA0608CCF80888DAF881
:100A000000605746D1F804C09E435FEACC2C00D565
:100A10001E433E60DBF800605F46D1F804C09E4391
:100A20005FEA8C2C00D51E433E60DEF800607746FE
:100A3000D1F804C09E435FEA8C3C00D51E433E6063
:100A4000084F083F3E68D1F804C09E435FEACC3CA3
:100A500000D51E433E60521C102AFFF431AFBDE8A2
:100A6000F88F0000083C014044380240003001404B
:100A7000000002400004024000080240000C024056
:100A8000001002400069084000D001207047426910
:100A900021EA02030A4043EA0241816170470AB138
:100AA000816170470904FBE70148806870470000D6
:100AB0005404002070B5040025D094F83D000025B2
:100AC00020B984F83C50204600F0B4F9242084F882
:100AD0003D002068016821F0010101602068016883
:100AE00041F4004101602068016821F40041016087
:100AF00000F008FB4D4A6168914201D84C4900E082
:100B00004C49884201D2012070BD4B492368B0FB9B
:100B1000F1F15E6826F03F060E435E606368934223
:100B200006D94FF4967359434FF47A73B1FBF3F13E
:100B30002368491C1E6A26F03F063143196261682A
:100B4000914210D84900401EB0FBF1F2521CC2F392
:100B50000B02042A01D2042022E0B0FBF1F0401C79
:100B6000C0F30B001CE0A268F2B301EBC10303EB7E
:100B70000116431EB3FBF6F35B1C43F480431B05D5
:100B800049D092B301EBC10202EB0111401EB0FB50
:100B9000F1F0401CC0F30B0040F4804040F40040F2
:100BA0002168CA694CF6FF739A431043C861D4E9BF
:100BB000071001432068026822F0C002114301605F
:100BC000D4E9030101432068826848F2FF339A4365
:100BD00011438160D4E9050108432168CA6822F005
:100BE000FF021043C86001E00EE016E020680168D3
:100BF00041F0010101602564202084F83D00256357
:100C000084F83E50002070BD01EB4106431EB3FB4B
:100C1000F6F35B1CB3E70120C2E701EB4101401E84
:100C2000B0FBF1F0401CC0F30B00B7E7A086010059
:100C300080841E0000093D0040420F002DE9FF4F57
:100C400083B09A46DDE9119793460446DDF840806B
:100C5000FFF72AFF054694F83D00202870D119239C
:100C6000012271492046009501F0EEFB0028F5D1E4
:100C700094F83C00012863D0012084F83C002068EF
:100C80000168C90703D1016841F0010101602068D2
:100C9000016821F400610160222084F83D004020B9
:100CA00084F83E0000262664C4F82480A4F82A9024
:100CB000608D20855D48E062CDE9007553465A4657
:100CC0002046049901F0EEFA00287CD1208DD0B1A5
:100CD000012821D00228206824D041698069009031
:100CE000208D032869D801282BD0514902283B4682
:100CF0004FF00002009559D08846204601F0A4FB31
:100D0000002860D13CE02068416981690091016858
:100D100041F40071016077E02068016821F480618E
:100D20000160F0E7016821F48061016020680168DA
:100D300041F400610160206841698069009063E0CE
:100D40006FE02A463946204601F0FDFB98BB20683B
:100D50000069616A08704EE02068016841F4007122
:100D6000016020680069616A0870606A401C606206
:100D7000218D491E2185618D491E6185216838E0DC
:100D80002068016821F48061016020680069616A5F
:100D90000870606A401C6062208D401E2085608D56
:100DA000401E60853B46002241460095204601F0EA
:100DB0004BFB00B9D0E706E0FFE72A46394620465C
:100DC00001F0C1FB18B1012007B0BDE8F08F206829
:100DD0000069616A0870606A401C6062218D491E6A
:100DE0002185618D491E618521684A69D243520778
:100DF0000AD409690170606A401C6062208D401E3F
:100E00002085608D401E6085208D00287FF468AFAE
:100E1000202084F83D0084F83E6084F83C60002087
:100E2000D2E70220D0E70000020010000000FFFF20
:100E30000400010010B586B0044614216846FFF78F
:100E4000B0FA13492068884220D112480021026874
:100E500042F002020260006800F002000590C0202B
:100E600000901220CDE9010103200390042004909A
:100E700069460948FFF716FD06481030016841F43D
:100E800000110160006800F40010059006B010BD6C
:100E9000005400403038024000040240024881689B
:100EA0000278114481607047540400200B4810B54B
:100EB000016841F400710160016841F480610160E2
:100EC000016841F480710160032000F06FF80F2089
:100ED00000F006F800F024F8002010BD003C0240AD
:100EE00070B50D4D04464FF47A712878B1FBF0F0DF
:100EF0000A490968B1FBF0F000F00CFB48B9102C6E
:100F000007D200222146501E00F030F800206C600D
:100F100070BD012070BD000054040020600400205A
:100F20000A4808B5016841F480410160006800F496
:100F3000804000900548001F016841F08051016029
:100F4000006800F08050009008BD00004438024066
:100F5000002809DB00F01F020121914040098000B8
:100F600000F1E020C0F8001170470000F0B40E4B13
:100F70001B680C46C3F30223C3F10705042D00D9F7
:100F80000425191D072901D2002300E0DB1E0126DC
:100F900006FA05F1491E214099409E40761E1640F2
:100FA0003143F0BC02F055BA0CED00E0064900F008
:100FB000070208684FF6FF03184040EA0220034A80
:100FC00010430860704700000CED00E00000FA05D7
:100FD0002DE9F0470E46050065D0DFF81481D8F8FA
:100FE0000000F7B200F00700B04207D288F80070A6
:100FF000D8F8000000F00700B04254D128683D4CFA
:10100000810712D5400703D5206840F4E0502060E6
:101010002878000703D5206840F4604020602068ED
:10102000A96820F0F000084320602878C0072DD080
:10103000304968680839012812D0022813D00328E3
:1010400011D00968890700292DDA216821F00301F0
:1010500001432160FFF728FD814641F2883A0EE006
:1010600009688903EFE709688901ECE7FFF71CFDD0
:10107000A0EB0901514502D90320BDE8F0872068A3
:10108000696800F00C00B0EB810FEFD1D8F80010C8
:10109000404601F00701B14207D90770006800F02F
:1010A0000700B04201D00120E7E72878400705D5C6
:1010B0002068E96820F4E0500843206028780007A1
:1010C00006D52068296920F4604040EAC10020600C
:1010D00000F038F82168084AC1F30311515CC84098
:1010E0000649086006480068FFF7FAFE0020C4E7DA
:1010F000003C024008380240FA6300086004002007
:10110000580400200448054900680968044AC1F3EE
:101110008221515CC84070476004002008380240BA
:101120000A6400080448054900680968044AC1F3D4
:101130004231515CC84070476004002008380240CA
:101140000A640008154810B5006810F00C02144835
:1011500013D01449042A0FD0082A0ED10F4C241F93
:101160002268236802F03F025B0207D52068C0F3C3
:101170008810A0FB010106E0084610BD2168C1F3FC
:101180008811A1FB00010023FFF794F82168C1F347
:101190000141491C4900B0FBF1F010BD0838024084
:1011A0000024F40040787D012DE9F84F04006ED052
:1011B0002078DFF84C93C007A9F104054AD009F163
:1011C00004000168C1F38101012908D00068C0F35F
:1011D000810002280AD1D9F80000400206D528680B
:1011E000800337D560680028E1D033E06068B0F54F
:1011F000803F10D0B0F5A02F286810D020F48030A8
:101200002860286820F4802028606068A8B1FFF773
:101210004BFC06460DE0286840F48030F4E740F4CB
:1012200080202860F7E700BFFFF73EFC801B6428A2
:1012300073D828688003F7D50CE0FFF735FC064625
:1012400005E000BFFFF730FC801B6428F0D8286859
:101250008003F7D42078DFF8AC8280074FF0000AD3
:101260003ED5A748001D016811F00C0F08D000689A
:10127000C0F3810002280BD1D9F80000400207D446
:101280002868800716D5E068012800D112E033E114
:10129000E068B8B10120C8F80000FFF705FC064679
:1012A00005E000BFFFF700FC801B0228C0D82868BB
:1012B0008007F7D52868216920F0F80040EAC100CE
:1012C00028600DE0C8F800A0FFF7EEFB064604E03A
:1012D000FFF7EAFB801B02281FD828688007F7D495
:1012E0002078000722D5864F87486169703771B131
:1012F00001210160FFF7D8FB064604E0FFF7D4FBAD
:10130000801B022809D838688007F7D50EE0C0F89E
:1013100000A0FFF7C9FB064605E082E0FFF7C4FB2B
:10132000801B02287DD838688007F7D420784007D2
:1013300068D5DFF8CCB100270BF13C0BDBF80000DF
:10134000C0000BD4DBF8001041F08051CBF8001046
:10135000DBF80000012700F0805000906B4E3068F1
:10136000C00510D4306840F480703060FFF79CFBFB
:10137000009005E0FFF798FB0099401A022850D82A
:101380003068C005F6D55E4EA0686C3601280FD0D7
:101390000528306810D020F001003060306820F05F
:1013A00004003060A068B8B1FFF77EFB00900FE04A
:1013B000306840F00100F4E740F004003060F7E7E7
:1013C000FFF772FB0099411A41F28830814266D8DA
:1013D00030688007F4D50EE0FFF766FB009007E069
:1013E000FFF762FB0099411A41F28830814256D8DA
:1013F00030688007F4D42FB1DBF8001021F0805161
:10140000CBF80010A069C8B33D49091D0968C1F3B4
:10141000810102294AD00228504607D0C8F860004E
:1014200000E03CE0FFF740FB04463BE04746C8F8DD
:101430006000FFF739FB064605E000BFFFF734FB0D
:10144000801B02282BD828688001F7D4D4E9070133
:101450000843A16A2E4A490802EB0141626A41EA47
:101460008211084394F82C1040EA0161C9F8001079
:1014700001203866FFF718FB044606E03EE000BF97
:10148000FFF712FB001B022809D828688001F7D556
:1014900034E000BFFFF708FB001B022802D903203D
:1014A000BDE8F88F28688001F4D427E00128F7D040
:1014B000D9F80000E26900F4800191421CD1226A4F
:1014C00000F03F01914217D147F6C071626A0140B6
:1014D000B1EB821F10D1A26A4FF0FF3300F440310C
:1014E00003EB5202B1EB024F06D194F82C1000F03E
:1014F0007060B0EB016F01D00120D1E70020CFE791
:101500000438024000004742800E4742007000400D
:101510000000FFFF10B5401EB0F1807F01D3012015
:1015200010BD4FF0E02460610F21601701F091FFC2
:101530000020A06107202061002010BD7047704787
:1015400070B590F83C20012A2CD0012480F83C4052
:10155000022280F83D2003685A689D6822F07006D8
:101560000A6832435A60104B02689A420ED0B2F1B8
:10157000804F0BD00D4B9A4208D00D4B9A4205D0AC
:101580000C4B9A4202D00C4B9A4204D1496825F088
:1015900080031943916080F83D40002180F83C10A1
:1015A000084670BD022070BD0000014000040040EC
:1015B00000080040000C00400040014010B504004D
:1015C00003D094F83D0010B107E0012010BD0020C9
:1015D00084F83C00204600F01FF8022084F83D000B
:1015E000211D206801F08EFC012084F8460084F85B
:1015F0003E0084F83F0084F8400084F8410084F8FD
:10160000420084F8430084F8440084F8450084F8DC
:101610003D00002010BD000008B5154A01681548BE
:1016200091420ED1016841F004010160006800227E
:1016300000F00400009011461E20FFF797FC1E20CA
:1016400010E00D4A914211D1016841F0080101609A
:101650000068002200F00800009011463220FFF7D9
:1016600085FC3220BDE80840FFF772BC08BD0000D1
:101670000008004040380240000C004090F83D1047
:10168000012901D001207047022180F83D10016836
:10169000CA6842F00102CA6000680E4988420ED052
:1016A000B0F1804F0BD00C49884208D00B498842DA
:1016B00005D00B49884202D00A49884204D181688A
:1016C00001F00701062903D0016841F00101016022
:1016D0000020704700000140000400400008004066
:1016E000000C00400040014070B5044690F83C00FA
:1016F0000025012817D0012684F83C60022084F8D8
:101700003D002068826822F0770222F47F428260E6
:101710000868502838D00DDC20284FD005DC90B365
:10172000102811D14AE0022070BD302846D0402850
:101730000AD13BE060282FD070280DD0B0F5805F33
:1017400003D0B0F5005F12D0012584F83D60002081
:1017500084F83C00284670BDCB68D1E9012120689F
:1017600001F029FC2068816841F0770109E0CB682D
:10177000D1E90121206801F01EFC2068816841F454
:1017800080418160E1E719E0CA684968206801F09A
:10179000C7FC5021206806E0CA684968206801F04B
:1017A000D0FC6021206801F010FCCEE7CA684968CF
:1017B000206801F0B5FC40212068F4E7226801466A
:1017C0001046F0E7704770B50446006801694FF0B5
:1017D0000005C943890715D4C168C943890711D4D5
:1017E000E91E01610120207720688069800720467A
:1017F00002D0FFF7E7FF04E000F0BEF8204600F05B
:1018000061F9257720680169C943490717D4C16880
:10181000C943490713D46FF0040101610220207706
:101820002068806910F4407F204602D0FFF7CAFF8D
:1018300004E000F0A1F8204600F044F92577206884
:101840000169C943090716D4C168C943090712D4FD
:101850006FF008010161042020772068C0698007CB
:10186000204602D0FFF7AEFF04E000F085F82046E6
:1018700000F028F9257720680169C943C90617D403
:10188000C168C943C90613D46FF010010161082073
:1018900020772068C06910F4407F204602D0FFF70F
:1018A00091FF04E000F068F8204600F00BF925777E
:1018B00020680169C943C90708D1C168C943C9077C
:1018C00004D1891E0161204600F08EF9206801696B
:1018D000C943090609D4C168C943090605D46FF094
:1018E000800101612046FFF729FE20680169C94394
:1018F000490609D4C168C943490605D46FF04001BF
:101900000161204600F0D4F920680169C9438906C5
:101910000BD4C168C943890607D46FF02001016167
:101920002046BDE87040FFF70ABE70BD10B586B016
:10193000044614216846FEF734FD2068B0F1804F5C
:1019400014D10B480021026842F0010202600068D5
:10195000022200F00100059001200090CDE9012154
:10196000CDE9031069460348FEF79CFF06B010BDA1
:101970003038024000000240704770B5044690F8CD
:101980003C0000260D4601280FD0012084F83C00C1
:101990006AB1042A1DD0082A2FD00C2A3FD0012674
:1019A000002084F83C00304670BD022070BD2068E5
:1019B00001F014FB2068816941F008018161206811
:1019C000816921F004018161206881692A691143DC
:1019D00011E0206801F02AFB2068816941F4006170
:1019E00081612068816921F4806181612068816959
:1019F0002A6941EA02218161D2E7206801F042FBB5
:101A00002068C16941F00801C1612068C16921F005
:101A10000401C1612068C1692A69114311E020688D
:101A200001F05CFB2068C16941F40061C16120687C
:101A3000C16921F48061C1612068C1692A6941EAF4
:101A40000221C161ACE710B5040003D094F83D0059
:101A500010B107E0012010BD002084F83C002046B2
:101A600000F01EF8022084F83D00211D206801F0DE
:101A700049FA012084F8460084F83E0084F83F00CB
:101A800084F8400084F8410084F8420084F8430060
:101A900084F8440084F8450084F83D00002010BD1F
:101AA00008B50068B0F1804F08D10548016841F0E1
:101AB00001010160006800F00100009008BD000015
:101AC000403802407047000010B50446022249B178
:101AD00004290ED0082913D094F84100012816D00B
:101AE000012010BD94F83E000128F9D184F83E2071
:101AF0000FE094F83F000128F2D184F83F2008E07D
:101B000094F840000128EBD184F8402001E084F8EB
:101B100041200122206801F041FA124920688842E0
:101B200003D1426C42F400424264206888420ED0E5
:101B3000B0F1804F0BD00C49884208D00B49884245
:101B400005D00B49884202D00A49884204D18168F5
:101B500001F00701062903D0016841F0010101608D
:101B6000002010BD000001400004004000080040BB
:101B7000000C00400040014030B504460D460068AE
:101B8000002201F00BFA174B41F2111120688A1064
:101B9000984209D1036A0B4206D1036A134203D16A
:101BA000436C23F4004343642068036A0B4206D16C
:101BB000016A114203D1016821F001010160012095
:101BC0003DB1042D08D0082D09D084F84100002033
:101BD00030BD84F83E00FAE784F83F00F7E784F868
:101BE0004000F4E70000014070B52C4A01682C4C1D
:101BF0001268914213D12B49A26809684A632146B1
:101C0000B2F57A7FC96801DBC9B10021E160002A21
:101C100001DCB1B10021E160A9B11432A260224916
:101C200000680968884237D1206B401C206300F0AF
:101C3000E9FC206B00253C2807D0E06A09E001217F
:101C4000E4E70121E7E7143AE8E72563E06A401C8E
:101C5000E0623C2801D0A06A03E0E562A06A401C73
:101C6000A062182800D1A562606B002814D00F4C28
:101C7000A068401CA06000F0C5FCA0683C2801D012
:101C8000606803E0A5606068401C60603C2803D188
:101C900065602068401C206070BD0000EC090020D9
:101CA000000000205C090020A4090020E4080020B6
:101CB0007047704770470000F8B50168044608682F
:101CC000CA684B6910F00F0F4FF000055AD003F0AF
:101CD000010602F49077374365D0C10705D0D105DE
:101CE00003D5216C41F001012164410705D5D907D5
:101CF00003D0216C41F002012164810705D5D90789
:101D000003D0216C41F004012164010707D502F0E2
:101D10002001314303D0216C41F008012164216C82
:101D200000293BD0800604D5900602D5204601F05C
:101D300049FA20684069216CC0F3801001F0080165
:101D4000014320462BD001F016FA20684069400676
:101D500021D52068143050E8001F21F0400140E8F0
:101D60000012002AF5D1A06BA8B16C490165A06BE7
:101D7000FEF792FC002811D0A06B016D01B0BDE808
:101D8000F040084783060ED593060CD52046BDE8E3
:101D9000F84001F017BA2046FFF78CFFF8BDFFF7B7
:101DA00089FF2564F8BD266B2023012E79D1C60654
:101DB00077D5D60675D5086848680090486940060A
:101DC00040D5A16B086840680004000CEAD0A28DE1
:101DD0008242E7D9E085C869B0F5807F2DD02068C0
:101DE0000C3050E8001F21F4807140E80012002AF6
:101DF000F5D12068143050E8001F21F0010140E8BF
:101E00000012002AF5D12068143050E8001F21F09C
:101E1000400140E80012002AF5D184F83E302563E5
:101E200020680C3050E8001F21F0100140E800123B
:101E3000002AF5D1A06BFEF7E6FBA08DE18D401ADC
:101E400081B229E0A08DE18D401A81B2E08D002899
:101E5000A8D00029A6D020680C3050E8002F22F42A
:101E6000907240E80026002EF5D12068143050E82A
:101E7000002F22F0010240E80026002EF5D184F860
:101E80003E30256320680C3050E8002F22F010020D
:101E900040E80023002BF5D12046FFF70AFFF8BDEC
:101EA000FFE705062BD5150629D594F83D00212816
:101EB000F5D1A068B0F5805F01D12069B0B1206A8A
:101EC000411C2162216800784860E08C401E0004BB
:101ED000000CE084E3D12068C16821F08001C1607A
:101EE0002068C16841F04001C160D8E7206A0088DD
:101EF000C0F308004860206A801C2062E5E74006C5
:101F0000CDD55006CBD5CA68204622F04002CA6023
:101F100084F83D3000F0ADF9C1E7000067310008FA
:101F200070B5040004D094F83D00002510B106E01F
:101F3000012070BD84F83C50204600F023F8242096
:101F400084F83D002068C16821F40051C16020463A
:101F500001F098F92068016921F49041016120683D
:101F6000416921F02A0141612068C16841F40051B2
:101F7000C1602564202084F83D0084F83E000020E4
:101F800070BD000010B586B0044614216846FEF707
:101F900008FA17492068884228D1164800210268AB
:101FA00042F400320260006800F4003005901148ED
:101FB0001038026842F001020260006800F001007F
:101FC00005900C2000900220CDE901010320039030
:101FD0000720049069460848FEF764FC00220F21A0
:101FE0002620FEF7C3FF2620FEF7B2FF06B010BD85
:101FF00000440040403802400000024090F83E306B
:10200000202B0ED159B152B190F83C30012B08D0A1
:10201000012380F83C300023036301F0B9B90120AB
:1020200070470220704700002DE9F04100686049C8
:10203000884270D15F4C604D20462178006C0027AB
:1020400005F10C06412902D0422904D013E0F0B971
:10205000012020641BE0D0B902202064032020610D
:1020600000F056FC5FF0000056F8201045F82010F4
:10207000401C0228F8DD2078492808D1206C30B1B6
:1020800027642F606F60AF60276100F041FC206C17
:1020900010B3012802D0022858D122E0207843282A
:1020A0000AD044280BD045280CD046280DD047280C
:1020B0000FD0482811D049E0206B401C07E0E06AAF
:1020C000401C08E0A06A401C09E0206B401E206311
:1020D0003CE0E06A401EE06238E0A06A401EA06278
:1020E00034E0207843280AD044280ED0452813D065
:1020F000462817D047281CD0482821D026E0B068B1
:10210000401CB060A868401C11E07068401C706002
:102110006868401C12E049E03068401C3060286864
:10212000401C12E0B068401EB060A868401EA86065
:102130000CE07068401E70606868401E686005E0D2
:102140003068401E30602868401E286028680028DB
:1021500000DA172028606868002800DA3B206860F1
:10216000A868002800DA3B20A8603068002800DA60
:10217000172030607068002800DA3B207060B0687B
:10218000002800DA3B20B060E06A002800DA3B203B
:10219000E062206B002800DA3B2020632770BDE856
:1021A000F041012203490548FFF728BFBDE8F0814F
:1021B0000044004000000020F0080020340A002005
:1021C0002DE9F843044690F83D001F4616460D469B
:1021D00020284CD1C5B1BEB194F83C00012846D0AE
:1021E000012084F83C004FF00008C4F84080212012
:1021F00084F83D00FEF758FCA6848146E684A0687A
:10220000B0F5805F03D004E00120BDE8F8832069C9
:1022100028B12E465FF0000584F83C800EE00026D1
:10222000FAE78021204601F0D0F8A0B9AEB116F847
:10223000010B21684860E08C401EE084E08C4B4636
:102240004FF0000200970028EBD14FF040012046EC
:1022500001F0BBF830B10320D7E735F8020BC0F32B
:102260000800E6E7202084F83D000020CDE70220AA
:10227000CBE77047FEE701684A69D24352050FD4A5
:102280006FF480624A61002140F8301F20224273BF
:102290008173026942F004020261017301207047F8
:1022A000002070472DE9F84F0446006889460B9DD1
:1022B00001689846174641F4806101602068016812
:1022C00041F48071016000954FF0011B00225946D6
:1022D00020460A9B00F0B8F84FF4007A40B120681D
:1022E0000068C00501D5C4F840A00320BDE8F88F00
:1022F000216809F0FE0008612B46284920460A9A09
:1023000000F0D6F8F0BB20684169806900902A4649
:1023100020460A9900F04AF940B1206C04283AD1CD
:102320002068016841F40071016034E0FEB2B8F148
:10233000010F09D02168380A08612A4620460A9907
:1023400000F034F90028E8D1206806612A462046CA
:102350000A9900F02BF90028DFD12068016841F4C8
:102360008071016000950022594620460A9B00F0CA
:102370006BF80028B3D1216809F0FF0040F001009C
:10238000086100E007E02B46044920460A9A00F065
:102390008FF80028AAD00120A8E700000200010061
:1023A00010B50E4C012280212046FEF778FB012259
:1023B00040212046FEF773FB00F01EF90022802129
:1023C0002046FEF76CFB00F017F900224021204662
:1023D000FEF765FBBDE8104000F00EB900000240BA
:1023E00010B50A4C002280212046FEF758FB01223E
:1023F00040212046FEF753FB00F0FEF82046012264
:10240000BDE810408021FEF74ABB000000000240FA
:1024100010B50C4C012280212046FEF740FB00F055
:10242000EBF8012240212046FEF739FB00F0E4F8EA
:10243000002240212046FEF732FBBDE8104000F0AC
:10244000DBB80000000002402DE9F0471E46904630
:102450000D460446C1F30747DDF8209008E0701CE4
:1024600006D0FEF721FBA0EB0900B0420FD876B1F1
:102470002068012F18D0806925EA00000004000CB4
:1024800014D000214145EAD00020BDE8F0870020AB
:1024900044F8300F20216173A073216941F02001BD
:1024A000216120730120F0E74069E5E70121E9E7B8
:1024B0002DE9F0479A4691460E46044600254FF016
:1024C0002008C1F3074725E020684069C043400564
:1024D00014D42068016841F40071016021686FF430
:1024E00080604861256384F83D8084F83E50206C0C
:1024F00040F00400206484F83C501FE0B9F1FF3F35
:1025000008D0FEF7D1FAA0EB0A0149450CD8B9F181
:10251000000F09D02068012F13D0806926EA00003F
:102520000004000C0BD0CFE744F8305F84F80D8036
:10253000A573206940F02000206125730120BDE8CB
:10254000F0874069EAE72DE9F041002590460E4604
:102550000446202717E04069C043C0060CD454F855
:10256000301B6FF01000486144F810596777A57769
:10257000206A2062257717E0FEF796FAA0EB0800A4
:10258000B04208D83EB120684169C9434906E2D447
:102590000020BDE8F08144F8305F6773A5732069BF
:1025A00040F02000206125730120F2E770B5164647
:1025B0000D4604460DE02046FFF75DFE08B1012000
:1025C00070BD681C05D0FEF76FFA801BA84207D8C3
:1025D00035B120684069C0430006ECD4002070BDCE
:1025E000002044F8300F20216173A073216941F06D
:1025F000200121612073E2E70A20401EC0B2FCD214
:10260000704700001FB56422022103A88DE807006F
:102610000123002290211248FEF710FBBDF80C00A8
:1026200041BA1048C1639DF80C20120604D5C94375
:10263000491CC16301218163C16BF4EE000A491199
:1026400000EE101AB8EEC00A20EE200AF2EE040ADC
:1026500020EE200ABDEEC00A80ED0F0A1FBD00006B
:102660000809002000000020F0B587B0142168465A
:10267000FDF797FE30480024016841F00401016035
:10268000016801F004010591016841F080010160D9
:10269000016801F080010591016841F001010160CC
:1026A000016801F001010591016841F0020101603A
:1026B0000068224F00F0020048F2E0060590002278
:1026C00031463846FEF7EBF94FF4005001258DE80E
:1026D000310069461A48FEF7E5F81020CDE90004FC
:1026E000694638460294FEF7DDF80096CDE90154BC
:1026F000694638460394FEF7D5F828034FF40414CE
:10270000CDE9000402200F4E029069463046FEF7E4
:10271000C9F84FF4C0408DE8310069463046FEF7F5
:10272000C1F800220E212820FEF720FC2820FEF709
:102730000FFC07B0F0BD000030380240000002403E
:1027400000080240000402400D4810B50B4901602A
:102750000C49416000214FF480428160C0E90312BE
:1027600041618161C1610162FEF7A4F9002803D0D3
:10277000BDE81040FDF745BF10BD0000005400400B
:1027800008090020A086010010B58AB00024079433
:102790001C2168460894FDF704FE17484FF080415D
:1027A000016040F24731C0E9011440F2E731C0E96D
:1027B000031480218161FFF746F908B1FDF721FF7D
:1027C000079407A90C480894FEF7BAFE08B1FDF774
:1027D00018FF602000903220CDE9010400226946F4
:1027E00005480494FFF7C9F808B1FDF70AFF02484D
:1027F000FFF79CF80AB010BD5C09002010B586B048
:1028000000241848009401940294039404941449F9
:102810000594016042F2CF01C0E9011442F20F7148
:10282000C0E9031480218161FEF7C8FE08B1FDF7FD
:10283000E8FE4FF48050009069460A48FEF754FFC6
:1028400008B1FDF7DEFE049404A906480594FEF7DE
:1028500077FE002801D0FDF7D4FE06B010BD0000C1
:1028600000080040A409002010B586B000241848D4
:102870000094019402940394049414490594016013
:1028800040F24731C0E9011440F2E731C0E90314D6
:1028900080218161FEF792FE08B1FDF7B2FE4FF490
:1028A0008050009069460A48FEF71EFF08B1FDF708
:1028B000A8FE049404A906480594FEF741FE0028EA
:1028C00001D0FDF79EFE06B010BD0000000C0040D8
:1028D000EC0900200C4810B50A4901604FF416516C
:1028E0004160002181600C22C160C0E90412816155
:1028F000C161FFF715FB002803D0BDE81040FDF7CC
:1029000080BE10BD00440040340A0020FEE7FEE710
:1029100030B40021084B0A465FF0000003EBC0040E
:10292000401CC0B262548028F8D3491CC9B208299F
:10293000F2D330BC00F096B86404002030B5CC0867
:1029400001F0070301259D40EBB2064D05EBC005E4
:10295000C808285C0AB1184302E063EA0000C043DB
:10296000285530BD6404002010B50021AE2000F0D1
:1029700028FA0021084600F024FA0021102000F077
:1029800020FA0021402000F01CFA0021812000F0F4
:1029900018FA0021CF2000F014FA0021A12000F045
:1029A00010FA0021C82000F00CFA0021A62000F047
:1029B00008FA0021A82000F004FA00213F2000F0CE
:1029C00000FA0021D32000F0FCF90021084600F0B5
:1029D000F8F90021D52000F0F4F90021802000F062
:1029E000F0F90021D92000F0ECF90021F12000F0ED
:1029F000E8F90021DA2000F0E4F90021122000F0CB
:102A0000E0F90021DB2000F0DCF90021402000F09B
:102A1000D8F90021202000F0D4F90021022000F094
:102A2000D0F900218D2000F0CCF90021142000F015
:102A3000C8F90021A42000F0C4F90021A62000F06C
:102A4000C0F9FFF765FF0021BDE81040AF2000F09E
:102A5000B8B90246012000E05043491EC9B2FBD27A
:102A60007047000070B5184E002400BF04F1B0009C
:102A7000C0B2002100F0A5F90021084600F0A1F93C
:102A80000021102000F09DF9FFF78AFC782000F06B
:102A9000B5F9FFF7BDFC402000F0B0F9FFF7B8FC36
:102AA0005FF0000506EBC500005D00F0A7F9FFF739
:102AB000AFFC6D1CEDB2802DF4D3FFF791FC641CCC
:102AC000E4B2082CD2D370BD640400202DE9FC4F81
:102AD0001C460E4682468B460190082B0ED060079E
:102AE00000D0012000EBD400610810FB01F0C0B25F
:102AF0008146203AD0B2009000204AE00620F7E755
:102B0000082C12D00C2C17D0102C1AD0182C43D112
:102B10000098234900EBC00001EB8001002711F869
:102B20000850E80712D00B9A13E000981D4900EBFB
:102B3000400001EB4001F1E700981B4900EB400029
:102B4000EAE71A49009801EB0011E7E70B9828B370
:102B5000002231465046FFF7F1FE761C7F1C6D08BF
:102B6000FFB2F6B2082FDCD30AF1010000F0FF0A31
:102B7000082C0AD00199AAEB0100B0EB540F04D144
:102B80000BF108008A4600F0FF0B08F101005E46D9
:102B9000C0B280464845B3D3BDE8FC8F0122D8E7D8
:102BA000164F00088A420008B2440008264900086F
:102BB0002DE9FF4F81B08146009098460E468B4626
:102BC000580701D0012100E0002101EBD80111FBE1
:102BD00008FA002448E000BFB8F1100F12D0B8F195
:102BE000180F14D0B8F1200F19D0B8F1400F3DD113
:102BF0002149039801EB40200027055DE80714D028
:102C00000E9A15E01D49039801EB4010F4E7039874
:102C1000194900EBC000C83901EBC000ECE71649C8
:102C20000398803901EBC010E6E70E9808B3002244
:102C300031464846FFF782FE761C7F1C6D08FFB2C6
:102C4000F6B2082FDAD309F10100009900F0FF096C
:102C5000A9EB0101414505D10BF10800DDF8009019
:102C600000F0FF0B5E46641C5445B5D305B0BDE8CB
:102C7000F08F0122DCE70000FA610008725C0008B6
:102C80002DE9F84F0025DDE90A691F4692468B467B
:102C90008046082E00D1022500241CE0381B401E6F
:102CA000C1B20A20FFF7D5FEBAFBF0F00A21B0FB53
:102CB000F1F201FB1200CDF8009080B13030C2B2C9
:102CC00005EB560101FB0480C0B233465946FFF7BD
:102CD000FDFE641CE4B2BC42E0D3BDE8F88F05EB16
:102CE000560101FB0480C0B233463022EEE72DE9E5
:102CF000FF4F82B08046019092460C464FF000098B
:102D00008B46580700D0012000EBD300059000202F
:102D100030E0002629E00F98002510F8097009F12D
:102D20000109F80701D0109A02E0109848B3002278
:102D300021464046FFF702FE641C6D1C7F08EDB281
:102D4000E4B2082DEDD308F10100019900F0FF086D
:102D5000A8EB0101514505D10BF10800DDF8048015
:102D600000F0FF0B761C5C46F6B25645D3D30098B4
:102D7000401CC0B2009005998842CAD306B0BDE895
:102D8000F08F0122D4E72DE9F8411E46154688460A
:102D90000446079F0BE03346414620460097FFF765
:102DA00095FE082E0AD004EB5600C4B26D1C2A789A
:102DB000A2F120005E28EED9BDE8F881A41DE4B29E
:102DC000F4E770B50C460546FFF7EAFA782000F004
:102DD00015F8FFF71DFB0CB1402000E0002000F0CB
:102DE0000DF8FFF715FB284600F008F8FFF710FB79
:102DF000BDE87040FFF7F4BA7047704770B5104EE9
:102E000005460024280601D5012200E00022802189
:102E10003046FDF744FEFFF7EFFB0122402130462C
:102E2000FDF73DFEFFF7E8FB002240213046FDF7AD
:102E300036FE6806641C050EE4B2082CE2D370BDB1
:102E400000000240FEF72AB830B593B03021684642
:102E5000FDF7A7FA14210CA8FDF7A3FA1D480025D9
:102E6000016841F080510160006800F080501190CD
:102E70001948016821F4404141F4004101600068B3
:102E8000022400F4404011900120009000040190C1
:102E90008001CDE9064019200890A820CDE9090459
:102EA00004200B906846FEF77FF908B172B6FEE782
:102EB0000CA90F2081E831004FF48050CDE90F05B7
:102EC00002210CA8FEF784F8002801D072B6FEE7B4
:102ED00013B030BD40380240007000400248016825
:102EE00041F470010160704788ED00E00148FEF791
:102EF0006ABC0000A40900200148FEF764BC000081
:102F0000EC090020F0B502681D4B1E4C9F031E4DBE
:102F10001E4E984207D0B84205D0A04203D0A84226
:102F200001D0B04204D122F0700C4A6842EA0C028F
:102F3000984210D0B8420ED0A0420CD0A8420AD07D
:102F4000B04208D0124CA04205D0124CA04202D090
:102F5000114CA04203D122F44074CA6822434C6948
:102F600022F08002224302608A68C2620A6882629A
:102F7000984201D10969016301214161F0BD00005E
:102F8000000001400004004000080040000C004028
:102F900000400140004401400048014010B501F0EC
:102FA0001F030121046A99408C430462016A9A401C
:102FB0001143016210BD10B5846842EA032224F473
:102FC0007F440A432243826010BD826822F070026F
:102FD0000A4342F0070181607047000030B5026A81
:102FE00022F001020262026A4368846924F07305D8
:102FF0000C682C4322F002058A682A430A4DA84235
:103000000BD122F00805CA6823F440732A434D69A6
:1030100022F004021D438B692B434360846149689D
:103020004163026230BD00000000014030B5026A19
:1030300022F010020262026A436884690D6824F477
:10304000E64444EA05248D6822F0200242EA051293
:103050000B4DA8420ED1CD6822F0800242EA051243
:103060004D6923F4406343EA85038D6922F04002F1
:1030700043EA85034360846149688163026230BD2D
:103080000000014030B5026A22F480720262036AD5
:103090004268C46923F4007324F073050C682C4360
:1030A0008D6843EA05230C4DA8420ED1CD6823F468
:1030B000006343EA05234D6922F4405242EA0512B7
:1030C0008D6923F4806342EA05124260C461496855
:1030D000C163036230BD00000000014030B5026AE8
:1030E00022F480520262046A4268C3690D6823F4C4
:1030F000E64343EA05238D6824F4005444EA05348A
:10310000064DA84204D14D6922F4804242EA85125C
:103110004260C36149680164046230BD000001403F
:1031200010B5036A046A24F001040462846924F07F
:10313000F00444EA021423F00A020A4384610262A2
:1031400010BD10B5036A23F0100303628369046A9B
:1031500023F4704343EA023224F0A00343EA01114E
:103160008261016210BD10B5806B0021C185C184F0
:10317000FEF7A0FD10BD01680C3151E8002F22F4CC
:10318000907241E80023002BF5D10168143151E819
:10319000002F22F0010241E80023002BF5D1016B42
:1031A000012909D101680C3151E8002F22F01002E9
:1031B00041E80023002BF5D1202180F83E100021AA
:1031C0000163704708B590F83E10222901D0022013
:1031D00008BD82684FF480539A4201D1016921B140
:1031E000816A9A421BD04AB10AE00268816A526839
:1031F000C2F308020A80816A891C08E0026972B180
:103200000268526802F07F020A70816A491C81627A
:10321000C18D491E0904090CC18503D019E002685B
:103220005268F1E70168CA6822F02002CA600168AA
:10323000CA6822F48072CA6001684A6922F00102F9
:103240004A61202180F83E10016B012903D0FEF76E
:10325000EBFE002008BD0021016301680C3151E83C
:10326000002F22F0100241E80023002BF5D1016865
:103270000A68D20602D50A6849680091818DFEF776
:1032800018FDE6E770B5044600680169E26821F4BC
:103290004051114301612169A068E26908436169F5
:1032A000114308432168CA6849F20C639A430243F8
:1032B000CA6020684169A26921F4407111434161EB
:1032C00031492068884202D03049884202D1FDF756
:1032D00029FF01E0FDF716FFE269002319216425AB
:1032E0003226B2F5004F626828D0A0FB0101930F8F
:1032F0009200FCF7DFFF0146B0FBF5F06FF018021B
:10330000504301EB800006EB0010B0FBF5F000F03D
:10331000F002B1FBF5F002EB0012B1FBF5F06FF03B
:103320001803584301EB800006EB0010B0FBF5F0EA
:1033300000F00F0021681044886070BDA0FB0101FF
:1033400092185B41FCF7B6FF0146B0FBF5F00201B5
:10335000B1FBF5F06FF01803584301EB800006EB6A
:10336000C000B0FBF5F000F0F80002EB4002B1FB4A
:10337000F5F0584301EB800006EBC000B0FBF5F020
:1033800000F00700D6E700000010014000140140E3
:1033900081628285C28500210164222280F83E205C
:1033A00080F83C10016921B10168CA6842F480725A
:1033B000CA6001684A6942F001024A610068C16856
:1033C00041F02001C160002070472DE9F04198468E
:1033D00017460E460446069D27E0681C25D02DB1F1
:1033E000FDF762FBA0EB0800A8421ED920680C3054
:1033F00050E8001F21F4D07140E80012002AF5D1F6
:103400002068143050E8001F21F0010140E800124C
:10341000002AF5D1202084F83D0084F83E000020E9
:1034200084F83C000320BDE8F0812068006836EA9B
:10343000000004D00020B842CFD00020F3E70120E4
:10344000F9E700000148FEF737BC0000340A00200D
:10345000FEE70907090E002804DB00F1E02080F8F0
:103460000014704700F00F0000F1E02080F8141DF8
:10347000704700001CB5FDF719FDFFF7E5FCFFF7ED
:10348000F3F8FFF727FAFFF77FF9FFF7EDF9FFF7FA
:103490005BF9FFF7B3F9FFF767FAFFF739FA012491
:1034A000FE48CDE900040021402380220846FFF7B2
:1034B0001EFCFFF7D7FA41F28830FDF7FFF8FFF75F
:1034C00027FAFFF7CFFAF648CDE9000400210B23D5
:1034D00007220846FFF70BFCA31EBE22F149F24863
:1034E000FEF76EFEED4901224439EF48FEF786FDF6
:1034F0000021EE48FEF7E8FAED48FEF7BFF8ED4888
:10350000FEF7BCF8DFF8B083E44D182700264FF033
:10351000100AA8F10C0B443D08F10C092869052894
:103520007ED2DFE800F003A7FDFCFB000094002240
:10353000287D10231146FFF73BFB0094287D1023C4
:103540001030C0B201220021FFF732FB0094287D29
:1035500010232030C0B202220021FFF729FB009483
:10356000287D10233030C0B203220021FFF720FB5A
:10357000CDE90074022310210E20AA6AFFF780FB18
:103580001823CEA2102128200094FFF7FCFBCDE9E0
:103590000074022310213820EA6AFFF771FB182318
:1035A000C6A2102150200094FFF7EDFBCDE9007476
:1035B000022310215C202A6BFFF762FB0094287D18
:1035C00010233030C0B204222821FFF7F1FAE96B52
:1035D0000A2091FBF0F2CDE900A4287D02230830F7
:1035E000C0B22821FFF74CFB0094287D102318302F
:1035F000C0B2B3A22821FFF7C6FBE96B0A2091FBFA
:10360000F0F2CDE900A400FB1212287D0123203046
:10361000C0B22821FFF734FB10230722302100E03D
:1036200094E060200096FFF7C3FA102308223021AF
:1036300070200096FFF7BCFAFEF7E4FFA86B009439
:103640000028287D4FF0100301D09EA200E09EA22A
:103650002821FFF798FBFFF705FAA869002875D025
:10366000AE612C6100940022287D10231146FFF7E3
:103670009FFAF6E10094287D102307220021FFF72E
:1036800097FA0094287D10233030C0B20822002120
:10369000FFF78EFAE86930B1012858D002287DD0B2
:1036A00003287CD152E110230922194600200096FC
:1036B000FFF77EFA10230222194618460096FFF7FC
:1036C00077FA10230222194620200096FFF770FA9D
:1036D00010230322194630200096FFF769FA1023C1
:1036E0000A22194640200096FFF762FA10230B22A7
:1036F000194650200096FFF75BFA10230C22202178
:1037000000200094FFF754FA10230D2220211846C0
:103710000094FFF74DFA1023022202E0FAE39FE241
:10372000A2E1202108460094FFF742FA1023032269
:10373000202130200094FFF73BFA10230A22202199
:1037400040200094FFF734FA009451E0F5E0102394
:103750000922194600200094FFF72AFA10230222BA
:10376000194618460094FFF723FA1023022219463F
:1037700020200094FFF71CFA102303221946302062
:103780000094FFF715FA10230A22194640200094EE
:10379000FFF70EFA10230B22194601E05AE04BE026
:1037A00050200094FFF704FA10230C22202100205F
:1037B0000096FFF7FDF910230D22202118460096F0
:1037C000FFF7F6F920211023022208460096FFF7A2
:1037D000EFF910230322202130200096FFF7E8F9AB
:1037E00010230A22202140200096FFF7E1F90096DD
:1037F00010230B2220215020FFF7DAF91023112289
:10380000302100200094FFF7D3F9009410231222F6
:1038100030211846FFF7CCF910230E22302160200A
:103820000094FFF7C5F9009410230F223021702077
:10383000FFF7BEF9FFF716F9A86900287DD0AE6141
:10384000E86900287AD0012879D0022878D00328A6
:1038500077D104E110230922194600200094FFF7D4
:10386000A7F910230222194618460094FFF7A0F981
:1038700010230222194620200094FFF799F9102303
:103880000322194630200094FFF792F910230A22F0
:10389000194640200094FFF78BF917E04400002000
:1038A0004404002014640008340A00205C0900204D
:1038B000EC090020A4090020F00800203A000000D4
:1038C0002E0000002D0000002B00000010230B2212
:1038D000194650200094FFF76BF910230C22202189
:1038E00000200094FFF764F910230D2220211846D0
:1038F0000094FFF75DF9202110230222084600946E
:10390000FFF756F910230322202130200094FFF7FF
:103910004FF910230A22202140200094FFF748F994
:1039200010230B22202150200094FFF741F910238F
:10393000112230210020009604E047E171E07CE094
:103940008AE08DE0FFF734F900965FE71023092243
:10395000194600200094FFF72BF910230222194684
:1039600018460094FFF724F910230222194620205C
:103970000094FFF71DF9102303221946302000940C
:10398000FFF716F910230A22194640200094FFF78A
:103990000FF910230B22194650200094FFF708F965
:1039A00010230C22202100200094FFF701F910239E
:1039B0000D22202118460094FFF7FAF82021102349
:1039C000022208460094FFF7F3F810230322202177
:1039D00030200094FFF7ECF810230A222021402029
:1039E0000094FFF7E5F810230B22202150200094CB
:1039F000FFF7DEF810231122302100200094FFF79A
:103A0000D7F810231222302118460094FFF7D0F87F
:103A100010230E22302160200096FFF7C9F800968F
:103A200002E702202861A96AC8F80010E96AC8F80C
:103A30000410296BC8F8081012E003202861D9F897
:103A40000020C8F80020D9F80420C8F80420D9F8CC
:103A50000800C8F8080003E00420286100E02E6197
:103A6000EE61FEF755FF56E21023092200211846A9
:103A70000094FFF79DF810230222002120200094DB
:103A8000FFF796F810230222002130200094FFF760
:103A90008FF810230322002140200094FFF788F8BC
:103AA00010230A22002150200094FFF781F81023F0
:103AB0000B22002160200094FFF77AF8A86938B142
:103AC000E869032804D0286A58B10020AE61286252
:103AD000E86940B101281AD0022852D0032875D1D4
:103AE00075E00120F2E7CDE90076022310210E20D7
:103AF000D8F80020FFF7C4F81823AFF240221021B5
:103B000028200094FFF73FF9CDE9007412E0CDE9D9
:103B10000074022310210E20D8F80020FFF7B0F81F
:103B20001823AFF26822102128200094FFF72BF908
:103B3000CDE90076022310213820D8F80420FFF7C1
:103B40009FF81823AFF28C22102150200094FFF729
:103B50001AF9CDE90074022310215C20D8F808205E
:103B6000FFF78EF810231A46302100200094FFF74B
:103B70001FF810230B22302118460094FFF718F885
:103B8000C9E1CDE90074022310210E20D8F80020ED
:103B9000FFF776F81823AFF2DC22102128200094DA
:103BA000FFF7F1F8CDE90074022310213820D8F88E
:103BB0000420FFF765F81823AFF2003210215020DF
:103BC0000094FFF7E0F8CDE90076C4E7B2E0CDE974
:103BD0000074022310210E20D8F80020FFF750F8BF
:103BE0001823AFF22832102128200094FFF7CBF8D9
:103BF000CDE90074022310213820D8F80420FFF703
:103C00003FF81823AFF24C32102150200094FFF7F8
:103C1000BAF8CDE90074022310215C20D8F80820FE
:103C2000FFF72EF810231A46302100200096FEF7E9
:103C3000BFFF10230B22302118460096FEF7B8FF75
:103C4000FEF710FFA869002874D0AE61D8F8001004
:103C5000A962D8F80410E962D8F808002863E3E103
:103C600010230C22002118460094FEF7A1FF102318
:103C70000D22002120200094FEF79AFF102302223B
:103C8000002130200094FEF793FF1023032200212F
:103C900040200094FEF78CFF10230A2200215020C0
:103CA0000094FEF785FF10230B2200216020009472
:103CB000FEF77EFFFEF7D6FEA86938B1E869042852
:103CC00004D0286A50B10020AE612862E869052856
:103CD00030D2DFE800F005456AAAFD000120F3E7D5
:103CE000CDE90076022310210E20D8F80020FEF73F
:103CF000C7FF1823AFF23C42102128200094FFF7A1
:103D000042F8CDE900743EE0132230210020FEF796
:103D10004FFF10231422302118460094FEF748FF6D
:103D2000CDE900A40223302120206A6AFEF7A8FF13
:103D30000094CFE084E20C2230210020FEF738FF0F
:103D400010230D22302118460094FEF731FF102376
:103D50001522302120200094FEF72AFF0094D4E0A1
:103D6000CDE90074022310210E20D8F80020FEF7C0
:103D700087FF1823AFF2BC42102128200094FFF7E0
:103D800002F8CDE90076022310213820D8F804206B
:103D9000FEF776FF1823AFF2DC421021502000948A
:103DA000FEF7F1FFCDE9007423E0CDE900740223B2
:103DB00010210E20D8F80020FEF762FF1823AFF282
:103DC0000452102128200094FEF7DDFFCDE9007495
:103DD000022310213820D8F80420FEF751FF1823C1
:103DE000AFF22852102150200094FEF7CCFFCDE90D
:103DF0000076022310215C20D8F80820FEF740FF4F
:103E000010231A46302160200094FEF7D1FE1023C3
:103E10000B22302170200094FEF7CAFE686A4FF032
:103E200010030094002886D06EE7CDE900740223C9
:103E300010210E20D8F80020FEF722FF1823AFF241
:103E40008452102128200094FEF79DFFCDE90074D4
:103E5000022310213820D8F80420FEF711FF182380
:103E6000AFF2A852102150200094FEF78CFFCDE94C
:103E70000074022310215C20D8F80820FEF700FF10
:103E800010231A46302160200094FEF791FE102383
:103E90000B22302170200094FEF78AFE686A4FF0F2
:103EA00010030096E8B1132230210020FEF780FEB7
:103EB00010231422302118460096FEF779FECDE932
:103EC00000A60223302120206A6AFEF7D9FE00E016
:103ED00024E0009630211023E8A20846FEF753FFA5
:103EE00019E00C2230210020FEF762FE10230D2283
:103EF000302118460096FEF75BFE10231522302174
:103F000020200096FEF754FE009610231622302142
:103F1000084633E68AE0FEF7A5FD91E1CDE900749D
:103F2000022310210E20D8F80020FEF7A9FE182346
:103F3000AFF27862102128200094FEF724FFCDE92B
:103F40000074022310213820D8F80420FEF798FED0
:103F50001823AFF29862102150200094FEF713FF4F
:103F6000CDE90074022310215C20D8F80820FEF768
:103F700087FE10231A46302160200096FEF718FEB7
:103F800010230B22302170200096FEF711FE686A84
:103F90004FF010030094D8B1132230210020FEF717
:103FA00007FE10231422302118460094FEF700FE6D
:103FB000CDE900A40223302120206A6AFEF760FECA
:103FC00030211023ADA208460094FEF7DCFE19E074
:103FD0000C2230210020FEF7EBFD10230D223021B2
:103FE00018460094FEF7E4FD10231522302120200E
:103FF0000094FEF7DDFD30211023162208460094C0
:10400000FEF7D6FDFEF72EFDA869002885D0AE612B
:10401000D8F80020C9F80020D8F80420C9F80420F6
:10402000D8F80800C9F808002C6119E50094287D2B
:10403000102311220021FEF7BBFD0094287D1023E0
:104040003030C0B212220021FEF7B2FDCDE900747B
:10405000022310210E20DBF80020FEF711FE1823AA
:10406000AFF2A872102128200094FEF78CFECDE953
:104070000074022310213820DBF80420FEF700FE34
:104080001823AFF2C872102150200094FEF77BFE77
:10409000CDE90074022310215C20DBF80820FEF734
:1040A000EFFDE869D8B301287ED002287FF4DBACAD
:1040B000686B4FF010030028009469D0192230215A
:1040C0000020FEF775FD10231A22009430211020E5
:1040D000FEF76EFD302110231B2208460094FEF7E8
:1040E00067FD10231C22302140200094FEF760FD64
:1040F00010230E22302160200096FEF759FD102378
:104100000F22302170200096FEF752FDA86900288A
:104110003FF4A9ACAE616E63EE612C61FBE6FFE794
:10412000686B4FF01003009680B3192230210020F5
:10413000FEF73EFD10231A22009630211020FEF7D4
:1041400037FD302110231B2208460094FEF730FD76
:1041500010231C22302140200094FEF729FD10235B
:104160000E22302160200094FEF722FD10230F2242
:10417000302170200094FEF71BFDA8690028CDD0E7
:10418000AE61686B70B100206863C4E601E00BE0CB
:104190004DE0172230210020FEF70AFD10231822DF
:1041A0000096CAE70120EFE7686B4FF01003009418
:1041B00098B3192230210020FEF7FAFC10231A22AE
:1041C000009430211020FEF7F3FC302110231B2235
:1041D00008460096FEF7ECFC10231C2230214020FC
:1041E0000096FEF7E5FC10230E223021602000949B
:1041F000FEF7DEFC10230F22302170200094FEF722
:10420000D7FCA869002889D0AE616E63CBF8006046
:10421000CBF80460CBF808607DE6FFE71722302179
:104220000020FEF7C5FC102318220094C9E71722CE
:1042300030210020FEF7BCFC10231822009445E733
:10424000686818B12320FCF739FA6E60686A0028A4
:104250003FF464A9D9F80020A96A48468A427FF44D
:104260005DA94268E96A8A42F9D1D9F80800296B48
:104270008842F4D1FCF7F6F8FFF750B9487A00000D
:104280004FF04070E1EE100A70470000000000009F
:104290000000002F000000000700070000147F143A
:1042A0007F1400242A7F2A12006264081323003638
:1042B0004955225000000503000000001C22410067
:1042C000000041221C000014083E08140008083EAB
:1042D0000808000000A060000008080808080000A6
:1042E00060600000002010080402003E5149453E75
:1042F0000000427F40000042615149460021414593
:104300004B31001814127F10002745454539003CF9
:104310004A494930000171090503003649494936C7
:1043200000064949291E00003636000000005636B6
:10433000000000081422410000141414141400009A
:104340004122140800020151090600324959513E28
:10435000007C1211127C007F49494936003E4141E0
:104360004122007F4141221C007F49494941007F91
:1043700009090901003E4149497A007F0808087F80
:104380000000417F4100002040413F01007F0814B0
:104390002241007F40404040007F020C027F007FAE
:1043A0000408107F003E4141413E007F0909090693
:1043B000003E4151215E007F0919294600464949C6
:1043C00049310001017F0101003F4040403F001F93
:1043D0002040201F003F4038403F00631408146312
:1043E00000070870080700615149454300007F41FC
:1043F000410000552A552A55000041417F00000424
:10440000020102040040404040400000010204005C
:10441000002054545478007F4844443800384444C1
:10442000442000384444487F00385454541800084D
:104430007E0901020018A4A4A47C007F080404786B
:104440000000447D4000004080847D00007F1028F3
:1044500044000000417F4000007C04180478007C88
:104460000804047800384444443800FC2424241808
:104470000018242418FC007C080404080048545444
:10448000542000043F444020003C4040207C001C5D
:104490002040201C003C4030403C00442810284470
:1044A000001CA0A0A07C004464544C4414141414B8
:1044B00014140000000000000000000000000000D4
:1044C000FC000000000002000000000C020C0200D2
:1044D00000000000000090D0BCD0BC90000300039E
:1044E00000001824FE448C00030207020100182477
:1044F000D8B04C80000300010201C038E438E0006D
:104500000102020102020806000000000000000093
:104510000000000000F80402000000010204000294
:1045200004F800000004020100009060F8609000B0
:104530000000010000002020FC20200000000100FD
:10454000000000000000000008060000000020201D
:1045500020202000000000000000000000000000FB
:104560000002000000000080601C02000403000044
:104570000000F8040404F80001020202010000082F
:10458000FC0000000002030200001884442418000C
:1045900003020202020008042424D80001020202DD
:1045A000010040B088FC80000000000302003C24B1
:1045B0002424C400010202020100F824242CC000BB
:1045C0000102020201000C04E41C040000000300CC
:1045D0000000D8242424D80001020202010038443B
:1045E0004444F80000030202010000001000000033
:1045F0000000020000000000200000000000060093
:104600000000002050880402000000000102909089
:1046100090909000000000000000000204885020EC
:104620000002010000001804C42418000000020069
:104630000000F804E494F80001020202020000E025
:104640009CF0800002030000030204FC2424D80034
:10465000020302020100F80404040C000102020239
:10466000010004FC0404F80002030202010004FC3F
:1046700024740C0002030202030004FC24740C00E6
:10468000020302000000F0080444CC4000010202D2
:10469000010004FC2020FC040203000003020404C7
:1046A000FC040400020203020200000404FC0404EF
:1046B00006040403000004FC24D00C0402030200DE
:1046C000030204FC04000000020302020203FC3C9B
:1046D000C03CFC0003000300030004FC30C4FC04E5
:1046E000020302000300F8040404F80001020202BD
:1046F000010004FC24241800020302000000F884D6
:104700008404F80001020207050004FC24649800F8
:10471000020302000302182424448C000302020254
:1047200001000C04FC040C0000020302000004FC65
:104730000000FC04000102020100047C80E01C0473
:104740000000030000001CE03CE01C00000300032C
:104750000000049C609C0400020300030200041C8F
:10476000E01C04000002030200000C84641C04002E
:104770000203020203000000FE0202000000070420
:104780000400000E30C00000000000010200000222
:1047900002FE000000040407000000040204000000
:1047A00000000000000000000000000008080808E9
:1047B00008080000020000000000000000000040A7
:1047C000A0A0C00000010202030204FC2020C000DF
:1047D00000030202010000C020206000000102026C
:1047E000020000C02024FC0000010202030200C0FD
:1047F000A0A0C0000001020202000020F82424044E
:104800000002030202000040A0A0602000070A0A84
:104810000A0404FC2020C00002030200030200205E
:10482000E4000000000203020000000020E4000099
:1048300008080807000004FC80E0202002030200B2
:1048400003020404FC000000020203020200E02054
:10485000E020C00003000300030020E02020C0008F
:1048600002030200030200C02020C0000001020277
:10487000010020E02020C000080F0A02010000C053
:104880002020E0000001020A0F0820E04020200064
:104890000203020000000060A0A02000000202024B
:1048A00003000020F820000000000102020020E0C8
:1048B0000020E00000010202030220E020806020CE
:1048C0000000030100006080E0806000000300033E
:1048D000000020608060200002030003020020E04E
:1048E000208060200808070100000020A060200050
:1048F000000203020200000020DE020000000007A8
:104900000400000000FF00000000000F0000000293
:10491000DE2000000004070000000201020404027F
:104920000000000000000000000000000000000087
:10493000000000000000000000F80000000000007F
:1049400000333000000000100C06100C06000000C0
:1049500000000000000040C07840C0784000043FE4
:1049600004043F040400007088FC083000000018B4
:1049700020FF211E0000F008F000E01800000021D8
:104980001C031E211E0000F00888700000001E217C
:1049900023241927211010160E000000000000002B
:1049A000000000000000000000E018040200000009
:1049B00000071820400000020418E000000000403A
:1049C000201807000000404080F0804040000202B4
:1049D000010F01020200000000F0000000000101D0
:1049E000011F01010100000000000000000080B074
:1049F0007000000000000000000000000000000146
:104A00000101010101010000000000000000003070
:104A1000300000000000000000008060180400600A
:104A200018060100000000E010080810E000000F68
:104A3000102020100F00001010F8000000000020CF
:104A4000203F202000000070080808887000003017
:104A500028242221300000300888884830000018BF
:104A6000202020110E000000C02010F800000007D8
:104A70000424243F240000F808888808080000194E
:104A8000212020110E0000E0108888180000000F7F
:104A9000112020110E0000380808C8380800000056
:104AA000003F000000000070880808887000001CAB
:104AB000222121221C0000E010080810E000000064
:104AC000312222110F00000000C0C00000000000D1
:104AD00000303000000000000080000000000000F6
:104AE00080600000000000008040201008000001ED
:104AF00002040810200040404040404040000404B0
:104B00000404040404000008102040800000002079
:104B1000100804020100007048080808F0000000B6
:104B2000003036010000C030C828E810E000071847
:104B3000272423140B000000C038E0000000203CB4
:104B400023020227382008F8888888700000203F58
:104B5000202020110E00C03008080808380007186F
:104B600020202010080008F808080810E000203F66
:104B7000202020100F0008F88888E8081000203F47
:104B800020202320180008F88888E8081000203F1B
:104B9000200003000000C030080808380000071893
:104BA0002020221E020008F808000008F808203F14
:104BB000210101213F20000808F80808000000201A
:104BC000203F2020000000000808F8080800C080EE
:104BD00080807F00000008F888C028180800203F67
:104BE00020012638200008F8080000000000203FBF
:104BF00020202020300008F8F800F8F80800203FB6
:104C0000003F003F200008F830C00008F808203FAF
:104C1000200007183F00E01008080810E0000F10FF
:104C2000202020100F0008F808080808F000203F96
:104C3000210101010000E01008080810E0000F1831
:104C4000242438504F0008F8888888887000203F56
:104C50002000030C30200070880808083800003855
:104C6000202121221C00180808F80808180000005C
:104C7000203F2000000008F808000008F808001F86
:104C8000202020201F000878880000C83808000075
:104C900007380E010000F80800F80008F800033C8F
:104CA0000700073C03000818688080681808203057
:104CB0002C03032C30200838C800C8380800000036
:104CC000203F2000000010080808C83808002038DD
:104CD000262120201800000000FE02020200000031
:104CE000007F40404000000C30C000000000000089
:104CF00000010638C00000020202FE000000004071
:104D000040407F0000000000040202020400000096
:104D10000000000000000000000000000000808093
:104D2000808080808080000202040000000000007B
:104D3000000000000000000080808080000000195A
:104D4000242222223F2008F8008080000000003F3B
:104D5000112020110E000000008080800000000E55
:104D6000112020201100000000808088F800000E33
:104D7000112020103F200000808080800000001F54
:104D8000222222221300008080F0888888180020C8
:104D9000203F202000000000808080808000006B89
:104DA00094949493600008F8008080800000203F75
:104DB000210000203F200080989800000000002083
:104DC000203F20200000000000809898000000C0D4
:104DD0008080807F000008F8000080808000203FF5
:104DE00024022D302000000808F8000000000020F8
:104DF000203F202000008080808080808000203F35
:104E000020003F20003F8080008080800000203F05
:104E1000210000203F200000808080800000001FD3
:104E2000202020201F00808000808000000080FF64
:104E3000A12020110E000000008080808000000E64
:104E4000112020A0FF8080808000808080002020B2
:104E50003F2120000100000080808080800000331E
:104E6000242424241900008080E0808000000000B9
:104E7000001F202000008080000000808000001FB4
:104E8000202020103F208080800000808080000152
:104E90000E300806010080800080008080800F3086
:104EA0000C030C300F000080800080808000002008
:104EB000312E0E3120008080800000808080808133
:104EC0008E701806010000808080808080000021A4
:104ED000302C2221300000000000807C0202000003
:104EE0000000003F404000000000FF000000000004
:104EF0000000FF0000000002027C80000000004073
:104F0000403F00000000000601010202040400000E
:104F10000000000000000000000000000000000091
:104F20000000000000000000000000000000000081
:104F3000000000000000000000000000000000F081
:104F4000F0F0000000000000000000017F01000000
:104F5000000000000000001C1C1C000000000000FD
:104F60008060301C8C60301C0C00000000000000D1
:104F70000000000000000000000000000000000031
:104F80000000000000E00000000000E000000086DB
:104F9000E69F86868686E69F860000011F01010146
:104FA00001011F010100000080C06020F820E0C066
:104FB0000000000003070C18FF70E18100000000F2
:104FC000070F10107F100F07000080602060800026
:104FD0000000E02000000F3020309F70DC371030E0
:104FE000C0000000100E0300071810180700000092
:104FF000C02020E0C0000000000080E01F38E887EB
:1050000003C43C040000070F1810100B070D10100C
:10501000080000808C4C38000000000000000000F8
:105020000000000000000000000000000000000080
:1050300000000000000000000000000080E03008D8
:1050400004000000000000FEFF010000000000005E
:1050500000000000030F1820400000040830E0802A
:105060000000000000000000000001FFFE00000042
:105070000000004020180F030000000000000000A6
:1050800000000000C00000000000004266663C18FE
:10509000FF183C66664200000000000003000000AC
:1050A0000000000000000000800000000000001070
:1050B00010101010FF101010101000000000000061
:1050C00003000000000000000000000000000000DD
:1050D0000000000000000000000000000000008050
:1050E0008C4C3800000000000000000000000000B0
:1050F0000000000000000010101010101010101020
:10510000100000000000000000000000000000008F
:10511000000000000000000000000000000000008F
:1051200000000000000000001C1C1C00000000002B
:1051300000000000000000000000E0380C0000004B
:10514000000080701C03000000000060380E0100A9
:10515000000000000000000080C060202060C080CF
:10516000000000FEFF010000000001FFFE00000142
:10517000070E181010180E0701000000808080C074
:10518000E000000000000000000000FFFF00000041
:10519000000000001010101F1F10101000000080F1
:1051A000402020202060C0800000000303008040D9
:1051B00020381F070000001C1A1918181818181F8B
:1051C00000000080C020202060C08000000000039C
:1051D00003001010182FE780000000070F101010B8
:1051E00010180F070000000000000000C0E0F000F1
:1051F000000000C0B088868180FFFF808000000032
:1052000000000010101F1F1010000000E060606020
:1052100060606060000000003F1008080818F0E0BF
:10522000000000070B101010101C0F0300000000FE
:1052300080C040202020E0C0000000FCFF211008BA
:10524000080818F0E0000001070C18101010080FF3
:1052500003000000C0E06060606060E0600000008B
:1052600003000000E0180700000000000000001F1D
:105270001F00000000000080C0602020202060C0CF
:1052800080000087EF2C1818303068CF83000007AB
:105290000F0810101010180F07000000C0C02020C9
:1052A0002020C0800000001F3F604040402010FFD1
:1052B000FE0000000C1C101010080F03000000007E
:1052C0000000000000000000000000000000000ED0
:1052D0000E0E0000000000000000001C1C1C00005E
:1052E00000000000000000000000000000000000BE
:1052F0000000000C0C00000000000000000000583E
:105300003800000000000000000000000080402085
:10531000100000001028448201000000000000007E
:10532000000000000102040810000000000000005E
:1053300000000000000000848484848484848484C9
:1053400084000000000000000000000000000000D9
:10535000102040800000000000000000000000005D
:10536000018244281000000010080402010000001F
:10537000000000C020201010101030E0C00000031A
:10538000030000F010080C070300000000001C1CC4
:105390001C0000000000000000C0406020202040F1
:1053A000C00000FCFF01F00E03C1FE03807F00017E
:1053B000070E08111110110904020000000080E01E
:1053C000E000000000000000807C4340477FF88040
:1053D000000010181F1000000000131F1C1020E018
:1053E000E02020202060C080000000FFFF1010108F
:1053F00010182FE78000101F1F1010101010180F2A
:105400000700000080C0402020202060E00000FC59
:10541000FF0100000000000001000001070E18104D
:1054200010100804030020E0E02020202040C0806D
:10543000000000FFFF000000000001FFFE00101F41
:105440001F10101018080E07010020E0E020202097
:1054500020202060800000FFFF101010107C000052
:105460000000101F1F10101010101018060020E070
:10547000E020202020206060800000FFFF1010103E
:10548000107C00000100101F1F1000000000000031
:105490000000000080C06020202040E0000000FCF0
:1054A000FF0100004040C0C140400001070E18103D
:1054B00010100F0F000020E0E0200000000020E0AE
:1054C000E02000FFFF101010101010FFFF00101F51
:1054D0001F1000000000101F1F100000202020E0FF
:1054E000E020202000000000000000FFFF0000007E
:1054F000000000001010101F1F101010000000000E
:105500000000202020E0E02020200000000000001B
:1055100000FFFF0000000060E0808080C07F3F004F
:10552000000020E0E020000020A06020200000FF1C
:10553000FF30187CE3C000000000101F1F100000A7
:1055400001131F1C181020E0E020000000000000E4
:10555000000000FFFF000000000000000000101F1E
:105560001F10101010101018060020E0E0E00000DE
:105570000000E0E0E02000FF013FFEC0E01E01FF70
:10558000FF00101F1000031F0300101F1F1020E05A
:10559000E0C0000000000020E02000FF0003071C26
:1055A00078E08000FF00101F100000000000030FD3
:1055B0001F00000080C060202060C080000000FE4E
:1055C000FF010000000000FFFE000001070E1810A0
:1055D00010180C07010020E0E0202020202060C0EF
:1055E000800000FFFF2020202020301F0F00101F10
:1055F0001F100000000000000000000080C06020BC
:105600002060C080000000FEFF010000000000FFDD
:10561000FE000001070E1111133C7C67210020E001
:10562000E0202020202060C0800000FFFF1010300C
:10563000F0D0080F0700101F1F10000000030F1C00
:1056400010100080C060202020204040E0000007B3
:105650000F0C1818303060E08100001F0C0810108B
:105660001010180F07008060202020E0E02020208C
:1056700060800100000000FFFF000000000100004A
:105680000000101F1F100000000020E0E0200000BC
:1056900000000020E02000FFFF00000000000000EC
:1056A000FF0000070F1810101010100807002060EE
:1056B000E0E02000000020E060200000077FF8808C
:1056C00000807C03000000000000071F1C07000092
:1056D000000020E0E02000E0E0200020E0200007C3
:1056E000FFF8E01FFFFCE01F00000000031F0300A5
:1056F000011F03000000002060E0A0000020E06027
:105700002000000000038F7CF8C60100000000109C
:10571000181E130001171F1810002060E0E0200081
:10572000000020E06020000001073EF8E0180700BC
:10573000000000000010101F1F101000000000806B
:105740006020202020A0E0E0200000000000C0F049
:105750003E0F0300000000101C1F1710101010183F
:1057600006000000000000FC040404040400000023
:10577000000000FF00000000000000000000007FAB
:10578000404040404000000010E0000000000000E9
:10579000000000000000031C60800000000000000A
:1057A0000000000000030C708000000004040404EA
:1057B00004FC0000000000000000000000FF0000EA
:1057C0000000000040404040407F0000000000001A
:1057D0000010080C040C081000000000000000007D
:1057E00000000000000000000000000000000000B9
:1057F00000000000000000000000000000000000A9
:105800000000000000000000000080808080808098
:105810008080808080800000000404080800000070
:105820000000000000000000000000000000000078
:105830000000000000000000000000000000000068
:10584000000000000000000098D844642424FCF804
:105850000000000F1F18101010081F1F1018002044
:10586000E0F000000000000000000000FFFF18084A
:1058700004040CF8F00000001F0F18101010180F8F
:10588000030000000000000000000000000000E035
:10589000F8180404043C3800000000030F0C10103A
:1058A0001010080600000000000000000020E0F0DA
:1058B000000000E0F81C04040408FFFF00000003DF
:1058C0000F18101010081F0F080000000000000043
:1058D0000000000000000000E0F8484444444C7818
:1058E00070000000030F0C181010100804000000D6
:1058F000000080C0602020E0C00000040404FFFF1E
:10590000040404040000000010101F1F10101000F9
:105910000000000000000000000000000000000087
:1059200070F88C04048CF874040C007076CF8D8DA4
:105930008D89C87870000020E0F0000000000000B1
:1059400000000000FFFF08040404FCF80000001041
:105950001F1F100000101F1F10000000000000603B
:105960006000000000000000040404FCFC000000D3
:10597000000000001010101F1F1010100000000089
:10598000000000000060600000000000000004044F
:1059900004FCFC0000000000C0C08080C07F3F000D
:1059A00000000020E0F00000000000000000000007
:1059B000FFFF80C0F41C0404000000101F1F110032
:1059C000031F1C1010000000202020E0F000000049
:1059D00000000000000000FFFF00000000000000C9
:1059E0001010101F1F101010000000000000000019
:1059F00000000000000004FCFC0804FCFC0804FC9F
:105A0000FC00101F1F10001F1F10001F1F100000A0
:105A1000000000000000000000000004FCFC08087A
:105A20000404FCF8000000101F1F100000101F1FCE
:105A3000100000000000000000000000000000E076
:105A4000F0180C04040C18F0E00000030F0C101008
:105A500010100C0F03000000000000000000000008
:105A600000000004FCFC080404040CF8F0000080B2
:105A7000FFFF889010101C0F0300000000000000C2
:105A800000000000000000E0F81C04040408F8FC1A
:105A9000000000030F1810109088FFFF8000000026
:105AA00000000000000000000000040404FCFC10E2
:105AB0000804040C0C001010101F1F101010000020
:105AC00000000000000000000000000000000000D6
:105AD0003078CCC48484840C1C0000001E18101084
